:100000000C9462000C9481090C945A090C948A0097
:100010000C948A000C948A000C948A000C948A0038
:100020000C948A000C94000A0C948A000C948A00A8
:100030000C948A000C948A000C948A000C948A0018
:100040000C9410090C948A000C94CE090C94A80905
:100050000C948A000C948A000C948A000C948A00F8
:100060000C94720A0C948A000000000024002700FF
:100070002A0000000000250028002B0000000000DE
:1000800023002600290004040404040404040202DA
:100090000202020203030303030301020408102007
:1000A0004080010204081020010204081020000012
:1000B0000008000201000003040700000000000027
:1000C0000000910B11241FBECFEFD8E0DEBFCDBFE3
:1000D00011E0A0E0B1E0E6E2F4E202C005900D928A
:1000E000A833B107D9F722E0A8E3B1E001C01D921F
:1000F000A83EB207E1F710E0C2E6D0E004C02197C5
:10010000FE010E94A80EC136D107C9F70E94D60B86
:100110000C9411120C94000008950895833081F01E
:1001200028F4813099F08230A9F008958730A9F041
:100130008830C9F08430B1F4809180008F7D03C095
:10014000809180008F7780938000089584B58F77A9
:1001500084BD089584B58F7DFBCF8091B0008F77EB
:100160008093B00008958091B0008F7DF9CFCF9338
:10017000DF93282F30E0F901E255FF4F8491F90118
:10018000E656FF4FD491F901EA57FF4FC491CC23B3
:10019000A1F081110E948E00EC2FF0E0EE0FFF1F06
:1001A000E458FF4FA591B491EC91ED2381E090E0EC
:1001B00009F480E0DF91CF91089580E090E0FACFDC
:1001C0001F93CF93DF93282F30E0F901E255FF4FC3
:1001D0008491F901E656FF4FD491F901EA57FF4F98
:1001E000C491CC23A9F0162F81110E948E00EC2F10
:1001F000F0E0EE0FFF1FEE58FF4FA591B4918FB7BF
:10020000F894EC91111108C0D095DE23DC938FBFD8
:10021000DF91CF911F910895DE2BF8CF8E5080642F
:1002200080937C0080917A00806480937A00809132
:100230007A0086FDFCCF8091780090917900089536
:100240003FB7F8948091900190919101A091920113
:10025000B091930126B5A89B05C02F3F19F00196D8
:10026000A11DB11D3FBFBA2FA92F982F8827BC0110
:10027000CD01620F711D811D911D42E0660F771F38
:10028000881F991F4A95D1F708958F929F92AF9238
:10029000BF92CF92DF92EF92FF926B017C010E949E
:1002A00020014B015C01C114D104E104F104B9F057
:1002B0000E942001681979098A099B09683E7340E8
:1002C0008105910580F321E0C21AD108E108F10807
:1002D00088EE880E83E0981EA11CB11CE4CFFF902D
:1002E000EF90DF90CF90BF90AF909F908F90089548
:1002F0008091890190918A01019690938A0180935F
:10030000890108950895AF92BF92CF92DF92EF9244
:10031000FF920F931F93CF93DF936C017B018B01AF
:10032000040F151FEB015E01AE18BF08C017D107FF
:1003300059F06991D601ED91FC910190F081E02D89
:10034000C6010995892B79F7C501DF91CF911F91DE
:100350000F91FF90EF90DF90CF90BF90AF900895F6
:10036000FC01538D448D252F30E0842F90E0821BBB
:10037000930B541710F0CF96089501970895FC0140
:10038000918D828D981761F0A28DAE0FBF2FB11D98
:100390005D968C91928D9F5F9F73928F90E00895F0
:1003A0008FEF9FEF0895FC01918D828D981731F0AA
:1003B000828DE80FF11D858D90E008958FEF9FEFFE
:1003C0000895FC01918D228D892F90E0805C9F4FD4
:1003D000821B91098F739927089582E392E00E940E
:1003E000E10121E0892B09F420E0822F089580E0CB
:1003F00090E0892B29F00E94ED0181110C940000FE
:100400000895FC01A48DA80FB92FB11DA35ABF4FA9
:100410002C91848D90E001968F739927848FA68903
:10042000B7892C93A089B1898C91837080648C9357
:10043000938D848D981306C00288F389E02D808106
:100440008F7D80830895EF92FF920F931F93CF9338
:10045000DF93EC0181E0888F9B8D8C8D98131AC0FF
:10046000E889F989808185FF15C09FB7F894EE89E6
:10047000FF896083E889F989808183708064808343
:100480009FBF81E090E0DF91CF911F910F91FF908E
:10049000EF900895F62E0B8D10E00F5F1F4F0F7336
:1004A0001127E02E8C8D8E110CC00FB607FCFACFF1
:1004B000E889F989808185FFF5CFCE010E9401028C
:1004C000F1CFEB8DEC0FFD2FF11DE35AFF4FF082C2
:1004D0009FB7F8940B8FEA89FB8980818062CFCF28
:1004E000CF93DF93EC01888D8823B9F0AA89BB896B
:1004F000E889F9898C9185FD03C0808186FD0DC056
:100500000FB607FCF7CF8C9185FFF2CF808185FF76
:10051000EDCFCE010E940102E9CFDF91CF91089586
:1005200020915901260F3327331F21323105ECF476
:1005300020910802FC0190E080E0243069F082E024
:100540000895A09159012191AC01475C5E4FA40F21
:10055000B52FB11D2C930196861798F38091590100
:10056000680F6093590180E0089581E0089510922A
:10057000080281E0809307021092E20161E082E1CB
:100580000E94E00061E083E10E94E000E9EBF0E01E
:1005900080818E7F808380818D7F808388E48093BB
:1005A000B80085E48093BC000895CF93DF9391E079
:1005B000909338018823B9F0C091B800D091BA0067
:1005C0008091BC008A7B8093BC0060E082E10E9445
:1005D000E00060E083E10E94E0000E94B702D09357
:1005E000BA00C093B800DF91CF9108958F929F9287
:1005F000AF92BF92CF92DF92EF92FF920F931F9331
:10060000CF93DF93D0913102D13208F0D7C0182FA9
:10061000C09130020E9420016B017C018091080290
:1006200081116BC082E080930802109307028FEF64
:100630008093060210920502D0930402A0E1B2E07A
:10064000E4EEF1E080E0D81391C01092E3018091D4
:10065000E301CC0FC82BC093E3018091E20181300C
:1006600009F088C01092E2010E9420016B017C0118
:100670008091E3018093BB0080910A0290910B026C
:10068000A0910C02B0910D02892B8A2B8B2BA1F02B
:100690000E94200100910A0210910B0220910C028D
:1006A00030910D026C197D098E099F0906171707F5
:1006B0002807390708F442C08091BC0083FDD8CFD9
:1006C00085EC8093BC000E9420016B017C0180912D
:1006D0000802823009F450C0809106028F3F09F46D
:1006E0006FC080910602803209F46CC080910602CE
:1006F000803309F469C084E026C080910A02909199
:100700000B02A0910C02B0910D02892B8A2B8B2B2E
:1007100009F484CF0E94200180900A0290900B027D
:10072000A0900C02B0900D026C197D098E099F09F2
:1007300086169706A806B90608F070CF80910902C0
:100740000E94D50285E010920F02109231021092A1
:100750000E02DF91CF911F910F91FF90EF90DF90EC
:10076000CF90BF90AF909F908F9008959D9191935F
:100770008F5F69CF85EEA5CF80910A0290910B0221
:10078000A0910C02B0910D02892B8A2B8B2B09F4BE
:100790009ECF0E94200100910A0210910B0220912D
:1007A0000C0230910D026C197D098E099F09061704
:1007B00017072807390708F08ACFC0CF81E0C3CFD9
:1007C00080E0C1CF82E0BFCF83E0BDCF1F93CF9346
:1007D000DF93EA01122FDC0111968D919C91DC01CF
:1007E000ED91FC910280F381E02D0995C817D9079E
:1007F00029F4812F0E94F60291E0811190E0892F67
:10080000DF91CF911F910895CF93DF93EC018B81FE
:100810008823A1F0888191E090930E0280933002AA
:1008200010920F021092310281E00E94F60291E0D4
:10083000811190E0892FDF91CF9108951092C1012D
:100840001092C00110920F02109231020E94B70262
:100850008CE890E090939701809396018DE890E06A
:10086000909395018093940181E08B83CE010E9447
:100870000404982F8111CECFDDCF0895E091C101FE
:100880008091C001E81730F4F0E0EE53FE4F808114
:1008900090E008958FEF9FEF08959091C1018091AE
:1008A000C0012FEF3FEF981748F4E92FF0E0EE5327
:1008B000FE4F208130E09F5F9093C101C9010895F0
:1008C0008091C0019091C101891B990B0895CF922D
:1008D000DF92EF92FF920F931F93CF93DF937C01F0
:1008E000CB018A0120910E02222389F0EB016B01DA
:1008F000C40ED51ECC15DD0569F06991D701ED91C7
:10090000FC910190F081E02DC7010995F3CF642F90
:100910000E949002C801DF91CF911F910F91FF902B
:10092000EF90DF90CF900895CF93DF931F92CDB7D4
:10093000DEB7698320910E022223F9F02091310263
:10094000203258F021E030E0FC013383228390E034
:1009500080E00F90DF91CF91089580910F02E82FF2
:10096000F0E0E05FFD4F998190838F5F80930F02ED
:100970008093310281E090E0ECCF61E0CE010196FE
:100980000E949002F7CF90E080E008951F93CF93EC
:10099000DF9300D000D01F92CDB7DEB7880F880F4D
:1009A0008A5F89831A827B834C835D838091DE0218
:1009B0009091DF02FC012481358125303105E0F082
:1009C000208111E010930E022093300210920F024A
:1009D0001092310221E045E050E0BE016F5F7F4F91
:1009E0000E94E60381270F900F900F900F900F90B9
:1009F000DF91CF911F91089581E0F5CFAB016F3F5B
:100A00009FE0790730F050E040E060E070E10C9446
:100A1000C604672B11F440E050E170E060E0F7CFCE
:100A2000CF93DF9300D0CDB7DEB789836A838091FF
:100A3000DE029091DF02FC012481358122303105F4
:100A400090F0208131E030930E022093300210921A
:100A50000F021092310221E042E050E0BE016F5FD0
:100A60007F4F0E94E6030F900F90DF91CF91089582
:100A70002F923F924F925F926F927F928F929F92AE
:100A8000AF92BF92CF92DF92EF92FF920F931F939C
:100A9000CF93DF931F92CDB7DEB76B017C0120E0CF
:100AA00030E040E85FE30E941B0F87FDECC020E0D0
:100AB00030EC4AE555E4C701B6010E947A101816D9
:100AC0000CF4E8C06091E0027091E1028091E202D2
:100AD0009091E3020E94C80F4B015C0120E030E0DE
:100AE00040E855E4C701B6010E947F109B01AC01AC
:100AF000C501B4010E94200F20E030E040E05FE338
:100B00000E94AF0E20E030E040E85FE30E94AE0EAE
:100B10006B017C0120E030E040E450E40E941B0FB8
:100B200087FDC0C020E030E04FE753E4C701B601C5
:100B30000E947A1018160CF4BBC0C701B6010E94BF
:100B4000990F962E1982E090DE02F090DF02D70115
:100B500014968D919C911597892B09F41AC18C914B
:100B600091E090930E028093300210920F02109247
:100B7000310220E041E050E0BE016F5F7F4FC701CE
:100B80000E94E603882309F404C18824839485EC39
:100B9000382EF701C480D58001E0C114D10409F4D6
:100BA00000E0A02EB12CD7012C900E9420012B0137
:100BB0003C0180910802811182C0102F80920802AE
:100BC00000930702BFEFB0930602109205028FEF69
:100BD000800F809304028092E3018091E301220C54
:100BE000282A2092E3018091E201813009F0A8C017
:100BF0001092E2010E9420012B013C018091E3014F
:100C00008093BB0080910A0290910B02A0910C028C
:100C1000B0910D02892B8A2B8B2BA1F00E94200111
:100C200020910A0230910B0240910C0250910D026A
:100C30006419750986099709261737074807590760
:100C400008F45EC08091BC0083FDD8CF3092BC0018
:100C50000E9420012B013C0180910802813009F49F
:100C600073C080910502801710F410910502E4EE24
:100C7000F1E0A2ECB1E080E0811709F446C0919167
:100C80009D938F5FF9CFC12CD12C40E8E42E4FE328
:100C9000F42E18CFC12C30ECD32E3AE5E32E35E4F8
:100CA000F32E10CFC12CD12C20E4E22EFE2C45CF08
:100CB000C12CD12C9FE7E92E93E4F92E3ECF8091F1
:100CC0000A0290910B02A0910C02B0910D02892BA7
:100CD0008A2B8B2B09F46DCF0E94200120910A02F0
:100CE00030910B0240910C0250910D02641975096C
:100CF00086099709261737074807590708F059CF7B
:100D0000809109020E94D50210E01092C101109357
:100D1000C0011A151B04E9F590E080E08A159B05D7
:100D2000A8F5D70111968D919C91DC01ED91FC9174
:100D30000284F385E02D0995898381E090E0EECF70
:100D4000E5EEE093BC0084CF80910A0290910B0203
:100D5000A0910C02B0910D02892B8A2B8B2B09F4E8
:100D60007BCF0E94200120910A0230910B0240911A
:100D70000C0250910D02641975098609970926170E
:100D800037074807590708F067CFBACFCD2809F4CD
:100D900000CF1981612F6F76606180E00E9410059D
:100DA000692D8EEF0E941005612F80E00E941005D2
:100DB00065E070E080E090E00E944501612F606A8C
:100DC00080E00E9410050F90DF91CF911F910F914D
:100DD000FF90EF90DF90CF90BF90AF909F908F905B
:100DE0007F906F905F904F903F902F9008951F934A
:100DF000CF93DF93EB01880F11E0180F1C161D062F
:100E0000A4F440E050E170E060E00E94C604BE013E
:100E100024E0660F771F2A95E1F7615F7F4F812FEE
:100E2000DF91CF911F910C94FE04209781F450E044
:100E300040E060E070E10E94C60450E040E060E005
:100E400070E1812FDF91CF911F910C94C604219600
:100E500094E0CC0FDD1F9A95E1F761E070E06C1B28
:100E60007D0B0E94FE0440E050E170E060E0E9CFBD
:100E7000CF92DF92EF92FF92CF93DF938FE00E94A9
:100E80000E01EC0180E10E940E018C1B9D0BBC0148
:100E9000990F880B990B0E94CA0F6093BC01709345
:100EA000BD018093BE019093BF016091BC01709120
:100EB000BD018091BE019091BF012091B801309198
:100EC000B9014091BA015091BB010E947F1060931B
:100ED000B4017093B5018093B6019093B70160910E
:100EE000B0017091B1018091B2019091B301209154
:100EF000AC013091AD014091AE015091AF010E9423
:100F00007F106093A8017093A9018093AA01909328
:100F1000AB016091BC017091BD018091BE019091C7
:100F2000BF012091A4013091A5014091A6015091EB
:100F3000A701C090A001D090A101E090A201F09083
:100F4000A3010E94AE0EA70196010E947F1060933C
:100F50009C0170939D0180939E0190939F016091ED
:100F6000B4017091B5018091B6019091B7012091C3
:100F7000A8013091A9014091AA015091AB01C09004
:100F80009C01D0909D01E0909E01F0909F010E94F5
:100F9000AF0EA70196010E94AF0E60939801709367
:100FA000990180939A0190939B01609198017091AF
:100FB000990180919A0190919B01C0909801D090E5
:100FC0009901E0909A01F0909B010E94920FC0E578
:100FD000D0E0C61BD70BD7FF02C0D0E0C0E0C338BB
:100FE000D10514F0C2E8D0E0C701B6010E94920F0B
:100FF000605B7F4F77FF02C070E060E0633871058F
:1010000014F062E870E071956195710990E080E0FC
:101010000E94F706BE0181E090E00E94F706CE0133
:10102000DF91CF91FF90EF90DF90CF900895CF9315
:10103000DF93EC0170E060E090E080E00E94F70652
:1010400070E060E081E090E00E94F706209741F0B8
:10105000BE01DD0F880B990BDF91CF910C944501F8
:10106000DF91CF910895CF93DF93EC016AEB7FEF8F
:1010700090E080E00E94F70666E470E081E090E096
:101080000E94F706209761F0BE01DD0F880B990BD7
:101090000E94450190E080E0DF91CF910C94170809
:1010A000DF91CF9108950F931F93CF93DF93EB01BF
:1010B00000271127081B190BB80190E080E00E945F
:1010C000F706B80181E090E00E94F706209771F0E2
:1010D000BE01DD0F880B990B0E94450190E080E076
:1010E000DF91CF911F910F910C941708DF91CF9151
:1010F0001F910F910895CF93DF93FC010190002081
:10110000E9F73197AF01481B590BBC0182E392E02C
:101110000E948301EC0142E050E06EE271E082E364
:1011200092E00E9483018C0F9D1FDF91CF91089563
:101130000F931F93CF93DF938C018FE00E940E01DA
:10114000883592406CF460E570E090E080E00E94A9
:10115000F70660E570E081E090E00E94F706EDCFD1
:1011600081E391E00E947B088FE00E940E01EC0178
:1011700080E10E940E01C81BD90BC536D1056CF069
:1011800060E570E090E080E00E94F70660E570E0C6
:1011900081E090E00E94F706E7CF84E391E00E94AF
:1011A0007B08C801DF91CF911F910F910C943308F8
:1011B00085ED8093BC0080910A0290910B02A09172
:1011C0000C02B0910D020796A11DB11D23E0B6954A
:1011D000A795979587952A95D1F72091BC0024FD76
:1011E00003C010920802089540910A0250910B0228
:1011F00060910C0270910D02452B462B472B69F331
:101200000097A105B10541F025E32A95F1F700000B
:101210000197A109B109E1CF809109020C94D5028F
:101220001F920F920FB60F9211242F933F938F931B
:101230009F93AF93BF9380918C0190918D01A0916A
:101240008E01B0918F0130918B0123E0230F2D3758
:1012500058F50196A11DB11D20938B0180938C013F
:1012600090938D01A0938E01B0938F018091900196
:1012700090919101A0919201B09193010196A11DCD
:10128000B11D8093900190939101A0939201B0932E
:101290009301BF91AF919F918F913F912F910F90AB
:1012A0000FBE0F901F90189526E8230F0296A11DE0
:1012B000B11DD2CF1F920F920FB60F9211242F9310
:1012C0003F934F935F936F937F938F939F93AF93CE
:1012D000BF93EF93FF93E0910201F0910301099511
:1012E000FF91EF91BF91AF919F918F917F916F91FE
:1012F0005F914F913F912F910F900FBE0F901F90D4
:1013000018951F920F920FB60F9211242F933F93AF
:101310004F935F936F937F938F939F93AF93BF93FD
:10132000EF93FF93E0910001F09101010995FF9186
:10133000EF91BF91AF919F918F917F916F915F914D
:101340004F913F912F910F900FBE0F901F901895C6
:101350001F920F920FB60F9211242F933F934F932A
:101360005F936F937F938F939F93AF93BF93EF930D
:10137000FF9382E392E00E940102FF91EF91BF91FF
:10138000AF919F918F917F916F915F914F913F911D
:101390002F910F900FBE0F901F9018951F920F92D4
:1013A0000FB60F9211242F938F939F93EF93FF9378
:1013B000E0914202F09143028081E0914802F09175
:1013C000490282FD1BC0908180914B028F5F8F7319
:1013D00020914C02821741F0E0914B02F0E0EE5C6C
:1013E000FD4F958F80934B02FF91EF919F918F91CD
:1013F0002F910F900FBE0F901F9018958081F4CF02
:101400001F920F920FB60F9211242F933F934F9379
:101410005F936F937F938F939F93AF93BF93EF935C
:10142000FF9380918201909183018093B20080911B
:10143000850190918601A0918701B0918801019664
:10144000A11DB11D8093850190938601A093870112
:10145000B09388018091850190918601A0918701C8
:10146000B091880140917E0150917F01609180018F
:101470007091810184179507A607B70710F1809135
:10148000840181111EC081E08093840180918501D7
:1014900090918601A0918701B0918801841B950BE2
:1014A000A60BB70B8093850190938601A0938701CB
:1014B000B0938801E0917C01F0917D010995109233
:1014C0008401FF91EF91BF91AF919F918F917F9197
:1014D0006F915F914F913F912F910F900FBE0F90A1
:1014E0001F9018951F920F920FB60F9211242F93F1
:1014F0003F934F935F936F937F938F939F93AF939C
:10150000BF93EF93FF938091B900887F803609F4F1
:101510004AC0F0F5883209F4A7C018F5803109F403
:101520009BC0B8F4882309F4F9C0883009F494C04A
:10153000FF91EF91BF91AF919F918F917F916F91AB
:101540005F914F913F912F910F900FBE0F901F9081
:101550001895883109F488C0803251F780930602CB
:1015600014C0803409F49DC040F48033B9F388334B
:10157000F9F68093060285ECB0C0803509F485C089
:10158000883509F496C0883499F60E94D808D0CFDF
:10159000883909F48CC038F5883729F050F488363A
:1015A00011F0803729F683E08093080210927B01C6
:1015B00057C0883809F47BC0803919F0803809F0A9
:1015C000B7CF80917B01803208F071C0E0917B0140
:1015D00081E08E0F80937B018091BB00F0E0E55AA3
:1015E000FE4F80833DC0803B39F0E0F4803A09F43F
:1015F00079C0883A09F09CCF84E080930802109269
:101600005A0110925901E0919601F09197010995C4
:101610008091590181110FC081E08093590110928E
:10162000390109C0803C09F4A6CF883C09F4A3CF56
:10163000883B09F07DCFE0915A0181E08E0F8093C5
:101640005A01F0E0E75CFE4F80818093BB009091EF
:101650005A018091590129C08091E3018093BB0018
:1016600085EC8093BC0064CF9091050280910402C8
:10167000981758F5E091050281E08E0F80930502DE
:10168000F0E0EC51FE4F8081E9CFE091050281E06E
:101690008E0F809305028091BB00F0E0EC51FE4F6D
:1016A000808390910502809104029817C8F285E822
:1016B000D8CFE091050281E08E0F809305028091E2
:1016C000BB00F0E0EC51FE4F808380910702811156
:1016D0005CCF81E08093E20184EA8093BC001092A9
:1016E000080226CF85EC8093BC00109208028091FE
:1016F0007B01803230F4E0917B01F0E0E55AFE4F4F
:10170000108260917B0170E0E0919401F09195016D
:101710008BE591E0099510927B010ACF10920602A9
:1017200034CFE2E3F2E01382128288EE93E0A0E08D
:10173000B0E084839583A683B7832EE031E03183C4
:10174000208325EC30E03587248724EC30E0378790
:10175000268720EC30E0318B208B21EC30E0338B7E
:10176000228B22EC30E0358B248B26EC30E0378B5B
:10177000268B118E128E138E148EEFECF2E01382F4
:10178000128284839583A683B78380E291E091835C
:101790008083ABEDB2E080E48C931296FC93EE93E1
:1017A000119714961C921E9213970895789484B5FD
:1017B000826084BD84B5816084BD85B5826085BD4D
:1017C00085B5816085BD80916E00816080936E00DB
:1017D00010928100809181008260809381008091CD
:1017E000810081608093810080918000816080937E
:1017F00080008091B10084608093B1008091B0003E
:1018000081608093B00080917A00846080937A0038
:1018100080917A00826080937A0080917A00816062
:1018200080937A0080917A00806880937A00109289
:10183000C100E0914202F091430282E08083E09196
:101840003E02F0913F021082E0914002F09141028D
:101850008FEC808310924A02E0914602F091470299
:1018600086E08083E0914402F091450280818061AE
:101870008083E0914402F0914502808188608083FA
:10188000E0914402F0914502808180688083E0917C
:101890004402F091450280818F7D808310928A01FD
:1018A000109289018AE999E9A9E9BEE38093B80118
:1018B0009093B901A093BA01B093BB011092AC010F
:1018C0001092AD011092AE011092AF011092A001E2
:1018D0001092A1011092A2011092A3011092A401F2
:1018E0001092A5011092A6011092A7011092BC01BE
:1018F0001092BD011092BE011092BF011092B00172
:101900001092B1011092B2011092B30122E030E0C6
:10191000F901E656FF4F4491F901EA57FF4F8491D0
:10192000882399F090E0880F991FFC01E859FF4F38
:10193000A591B491FC01EE58FF4F859194918FB71A
:10194000F894EC91E42BEC938FBF2F5F3F4F2A303C
:101950003105F1F68091DE029091DF02009711F0DF
:101960000E94881186E090E00E94EC10EC018091CA
:10197000DC029091DD022091DB0228839A83898327
:101980001B8280E290E09D838C83D093DF02C09322
:10199000DE021092C1011092C00110920F0210924B
:1019A00031020E94B7028CE890E0909397018093F7
:1019B00096018DE890E0909395018093940181E0E9
:1019C0008B83CE010E9404048823E1F060E880E06C
:1019D0000E9410056AE070E080E090E00E944501FE
:1019E00080E498E7ADE7B1E08093E0029093E102F4
:1019F000A093E202B093E30260E070E08AE794E42F
:101A00000E94380580EC9CEFABE9B1E08093E002E6
:101A10009093E102A093E202B093E30260E070E0F1
:101A200088EC93E40E9438058CE08093B80084E64B
:101A300090E0A0E0B0E080937E0190937F01A093BE
:101A40008001B093810188E791E090937D018093BC
:101A50007C01809170008E7F809370008091B00037
:101A60008C7F8093B0008091B100877F8093B1001C
:101A70008091B6008F7D8093B600809170008D7F3D
:101A8000809370008091B10084608093B100809158
:101A9000B1008C7F8093B10086E090E09093830149
:101AA0008093820110928501109286011092870125
:101AB000109288011092840180918201909183019B
:101AC0008093B2008091700081608093700000E08C
:101AD00010E0C4E0D0E00E9438078CE00E94B7001C
:101AE000892BC9F388EE93E00E9417088CE291E0FD
:101AF0000E943308219779F70E9438078CE00E94F2
:101B0000B700892BC9F38CE291E00E9498080E94EB
:101B100038078CE00E94B700892BC9F388EE93E068
:101B20000E94170880E10E940E01883592403CF423
:101B300070E060E080E590E00E945308F3CF8FE012
:101B40000E940E01EC0180E10E940E01C81BD90B1E
:101B5000C536D1053CF070E060E080E590E00E9481
:101B60005308EDCF6CE271E086E490E00E945308E8
:101B700080E10E940E01883592402CF470E060E014
:101B800080E590E0F3CF8FE00E940E01EC0180E150
:101B90000E940E01C81BD90BC536D1053CF070E080
:101BA00060E080E590E00E945308EDCF8CE291E088
:101BB0000E9433080E9438078CE00E94B700892BEE
:101BC000C9F38AE090E00E94980810928A0110926E
:101BD00089010E9438078091890190918A010497B8
:101BE000C4F30E9438078CE00E94B700892BC9F328
:101BF00082E390E00E94980810928A011092890175
:101C00000E9438078091890190918A014A97C4F314
:101C10000E9438078CE00E94B700892BC9F390E03E
:101C200080E00E9498080E9438078BE00E94B7006D
:101C3000892BC9F388EE93E00E9417088CE291E0AB
:101C40000E9433080E9438078BE00E94B700892B5E
:101C5000C9F388EE93E00E9417088CE291E00E949D
:101C600033080E9438078BE00E94B700892BC9F324
:101C700088EE93E00E9417088CE291E00E943308FE
:101C80000E9438078CE00E94B700892BC9F38CE2D0
:101C900091E00E94980810928A01109289010E9496
:101CA00038078091890190918A014097C4F368E2D6
:101CB00075E086E490E00E94530888EB9BE00E9468
:101CC000170810928A01109289010E9438078091AA
:101CD000890190918A01C397C4F30E9438078CE070
:101CE0000E94B700892BC9F390E080E00E94980819
:101CF00010928A01109289010E943807809189010F
:101D000090918A014897C4F380ED97E00E941708EC
:101D100010928A01109289010E94380780918901EE
:101D200090918A018697C4F380E19EE00E94170893
:101D300080E197E20E9417080115110509F4C9CE48
:101D40000E94ED01882309F4C4CE0E940000C1CE98
:101D5000EE0FFF1F0590F491E02D09945058BB271A
:101D6000AA270E94C60E0C9440100E94321038F030
:101D70000E94391020F039F49F3F19F426F40C9496
:101D80002F100EF4E095E7FB0C942910E92F0E9428
:101D9000511058F3BA17620773078407950720F0AC
:101DA00079F4A6F50C9473100EF4E0950B2EBA2F6F
:101DB000A02D0B01B90190010C01CA01A001112451
:101DC000FF27591B99F0593F50F4503E68F11A16FD
:101DD000F040A22F232F342F4427585FF3CF46958E
:101DE00037952795A795F0405395C9F77EF41F16B0
:101DF000BA0B620B730B840BBAF09150A1F0FF0F7A
:101E0000BB1F661F771F881FC2F70EC0BA0F621F65
:101E1000731F841F48F4879577956795B795F79555
:101E20009E3F08F0B0CF9395880F08F09927EE0FEA
:101E30009795879508950E94051008F481E008950C
:101E40000E94340F0C9440100E94391058F00E94E8
:101E5000321040F029F45F3F29F00C942910511101
:101E60000C9474100C942F100E94511068F3992355
:101E7000B1F3552391F3951B550BBB27AA27621786
:101E80007307840738F09F5F5F4F220F331F441F93
:101E9000AA1FA9F335D00E2E3AF0E0E832D09150C7
:101EA0005040E695001CCAF72BD0FE2F29D0660FB4
:101EB000771F881FBB1F261737074807AB07B0E8F7
:101EC00009F0BB0B802DBF01FF2793585F4F3AF0FD
:101ED0009E3F510578F00C9429100C9474105F3FCC
:101EE000E4F3983ED4F3869577956795B795F79583
:101EF0009F5FC9F7880F911D9695879597F908956B
:101F0000E1E0660F771F881FBB1F62177307840706
:101F1000BA0720F0621B730B840BBA0BEE1F88F715
:101F2000E09508950E94990F6894B1110C94741073
:101F300008950E94591088F09F5798F0B92F99275B
:101F4000B751B0F0E1F0660F771F881F991F1AF0A4
:101F5000BA95C9F714C0B13091F00E947310B1E086
:101F600008950C947310672F782F8827B85F39F085
:101F7000B93FCCF3869577956795B395D9F73EF43D
:101F800090958095709561957F4F8F4F9F4F0895E5
:101F9000E89409C097FB3EF4909580957095619503
:101FA0007F4F8F4F9F4F9923A9F0F92F96E9BB27B9
:101FB0009395F695879577956795B795F111F8CF35
:101FC000FAF4BB0F11F460FF1BC06F5F7F4F8F4FA0
:101FD0009F4F16C0882311F096E911C0772321F096
:101FE0009EE8872F762F05C0662371F096E8862F2E
:101FF00070E060E02AF09A95660F771F881FDAF785
:10200000880F9695879597F90895990F0008550FB1
:10201000AA0BE0E8FEEF16161706E807F907C0F06E
:1020200012161306E407F50798F0621B730B840B76
:10203000950B39F40A2661F0232B242B252B21F450
:1020400008950A2609F4A140A6958FEF811D811DF0
:10205000089597F99F6780E870E060E008959FEF2A
:1020600080EC089500240A9416161706180609062F
:10207000089500240A9412161306140605060895FE
:10208000092E0394000C11F4882352F0BB0F40F486
:10209000BF2B11F460FF04C06F5F7F4F8F4F9F4FC6
:1020A000089557FD9058440F551F59F05F3F71F048
:1020B0004795880F97FB991F61F09F3F79F08795AF
:1020C0000895121613061406551FF2CF4695F1DF38
:1020D00008C0161617061806991FF1CF86957105C8
:1020E000610508940895E894BB2766277727CB01FC
:1020F00097F908950E94051008F48FEF08950E9443
:1021000092100C9440100E94321038F00E94391046
:1021100020F0952311F00C9429100C942F10112409
:102120000C9474100E94511070F3959FC1F3950F99
:1021300050E0551F629FF001729FBB27F00DB11D4B
:10214000639FAA27F00DB11DAA1F649F6627B00DDB
:10215000A11D661F829F2227B00DA11D621F739FC4
:10216000B00DA11D621F839FA00D611D221F749FD2
:102170003327A00D611D231F849F600D211D822F19
:10218000762F6A2F11249F5750409AF0F1F0882340
:102190004AF0EE0FFF1FBB1F661F771F881F91506D
:1021A0005040A9F79E3F510580F00C9429100C94E3
:1021B00074105F3FE4F3983ED4F386957795679566
:1021C000B795F795E7959F5FC1F7FE2B880F911D97
:1021D0009695879597F908950F931F93CF93DF9363
:1021E0008230910510F482E090E0E091E602F091F7
:1021F000E70230E020E0B0E0A0E0309799F421154C
:10220000310509F44AC0281B390B24303105D8F5B3
:102210008A819B816115710589F1FB01938382831A
:10222000FE0111C040815181028113814817590775
:10223000E0F04817590799F4109761F012960C9343
:10224000129713961C933296CF01DF91CF911F9175
:102250000F9108950093E6021093E702F4CF211541
:10226000310551F04217530738F0A901DB019A01FB
:10227000BD01DF01F801C1CFEF01F9CF9093E70273
:102280008093E602CDCFFE01E20FF31F819391937D
:102290002250310939832883D7CF2091E40230912D
:1022A000E502232B41F42091060130910701309380
:1022B000E5022093E40220910401309105012115EB
:1022C000310541F42DB73EB7409108015091090105
:1022D000241B350BE091E402F091E502E217F307CD
:1022E000A0F42E1B3F0B2817390778F0AC014E5F86
:1022F0005F4F2417350748F04E0F5F1F5093E502DC
:102300004093E402819391939FCFF0E0E0E09CCF73
:10231000CF93DF930097E9F0FC013297138212828A
:10232000A091E602B091E702ED0130E020E01097C5
:10233000A1F420813181820F931F2091E40230911A
:10234000E5022817390709F061C0F093E502E09330
:10235000E402DF91CF910895EA01CE17DF07E8F597
:102360004A815B819E0141155105B1F7E901FB836B
:10237000EA8349915991C40FD51FEC17FD0761F409
:10238000808191810296840F951FE901998388834A
:10239000828193819B838A83F0E0E0E012968D91A5
:1023A0009C9113970097B9F52D913C911197CD0110
:1023B0000296820F931F2091E4023091E5022817C4
:1023C000390739F6309751F51092E7021092E6027C
:1023D000B093E502A093E402BCCFD383C2834081D3
:1023E0005181840F951FC817D90761F44E5F5F4F65
:1023F00088819981480F591F518340838A819B812D
:10240000938382832115310509F0B0CFF093E70261
:10241000E093E6029ECFFD01DC01C0CF1382128261
:06242000D7CFF894FFCFB6
:10242600820182010000E802800000000000230211
:102436008301B0017002E101BF01D3010000000079
:1024460094046704C3043D0460044D043E040D0A6D
:08245600007231007232000037
:00000001FF
