:100000000C9462000C94EA090C94C3090C948A00C5
:100010000C948A000C948A000C948A000C948A0038
:100020000C948A000C94690A0C948A000C94FA0BC4
:100030000C948A000C948A000C948A000C948A0018
:100040000C9479090C948A000C94370A0C94110AC8
:100050000C948A000C948A000C948A000C948A00F8
:100060000C94DB0A0C948A00000000002300260098
:10007000290000000008000201000003040700003E
:1000800000000000000000000000250028002B00F8
:1000900000000000240027002A00040404040404D3
:1000A0000404020202020202030303030303010227
:1000B00004081020408001020408102001020408F6
:1000C0001020D10C11241FBECFEFD8E0DEBFCDBF72
:1000D00011E0A0E0B1E0E6E7F8E202C005900D9281
:1000E000AE32B107D9F723E0AEE2B1E001C01D9214
:1000F000AD30B207E1F710E0C2E6D0E004C02197CE
:10010000FE010E94D010C136D107C9F70E94220D0E
:100110000C9439140C94000090E0FC01E255FF4F60
:10012000249186569F4FFC018491882399F090E09A
:10013000880F991FFC01E057FF4FA591B491FC0176
:10014000EA57FF4F859194918FB7F894EC91E22B89
:10015000EC938FBF089508950895833081F028F4BB
:10016000813099F08230A9F008958730A9F0883065
:10017000C9F08430B1F4809180008F7D03C08091FC
:1001800080008F7780938000089584B58F7784BD39
:10019000089584B58F7DFBCF8091B0008F778093D9
:1001A000B00008958091B0008F7DF9CFCF93DF9399
:1001B000282F30E0F901EE58FF4F8491F901E25504
:1001C000FF4FD491F901E656FF4FC491CC23A1F023
:1001D00081110E94AD00EC2FF0E0EE0FFF1FE859F7
:1001E000FF4FA591B491EC91ED2381E090E009F4EB
:1001F00080E0DF91CF91089580E090E0FACF1F93E7
:10020000CF93DF93282F30E0F901EE58FF4F849110
:10021000F901E255FF4FD491F901E656FF4FC49121
:10022000CC23A9F0162F81110E94AD00EC2FF0E035
:10023000EE0FFF1FEA57FF4FA591B4918FB7F894C7
:10024000EC91111108C0D095DE23DC938FBFDF91B4
:10025000CF911F910895DE2BF8CF8E50806480934C
:100260007C0080917A00806480937A0080917A008B
:1002700086FDFCCF809178009091790008953FB77A
:10028000F8948091AA019091AB01A091AC01B0913A
:10029000AD0126B5A89B05C02F3F19F00196A11D01
:1002A000B11D3FBFBA2FA92F982F8827BC01CD01C0
:1002B000620F711D811D911D42E0660F771F881F1F
:1002C000991F4A95D1F708958F929F92AF92BF924E
:1002D000CF92DF92EF92FF926B017C010E943F016F
:1002E0004B015C01C114D104E104F104B9F00E9496
:1002F0003F01681979098A099B09683E73408105A5
:10030000910580F321E0C21AD108E108F10888EED6
:10031000880E83E0981EA11CB11CE4CFFF90EF90E3
:10032000DF90CF90BF90AF909F908F900895809175
:10033000B2019091B30101969093B3018093B20101
:1003400008950895AF92BF92CF92DF92EF92FF92FD
:100350000F931F93CF93DF936C017B018B01040FED
:10036000151FEB015E01AE18BF08C017D10759F089
:100370006991D601ED91FC910190F081E02DC601CB
:100380000995892B79F7C501DF91CF911F910F91C5
:10039000FF90EF90DF90CF90BF90AF900895FC0159
:1003A000538D448D252F30E0842F90E0821B930BDA
:1003B000541710F0CF96089501970895FC01918D80
:1003C000828D981761F0A28DAE0FBF2FB11D5D9683
:1003D0008C91928D9F5F9F73928F90E008958FEF25
:1003E0009FEF0895FC01918D828D981731F0828DD9
:1003F000E80FF11D858D90E008958FEF9FEF089530
:10040000FC01918D228D892F90E0805C9F4F821B93
:1004100091098F73992708958EE492E00E9400025B
:1004200021E0892B09F420E0822F089580E090E0FC
:10043000892B29F00E940C0281110C940000089570
:10044000FC01A48DA80FB92FB11DA35ABF4F2C9149
:10045000848D90E001968F739927848FA689B78940
:100460002C93A089B1898C91837080648C93938D37
:10047000848D981306C00288F389E02D80818F7DDA
:1004800080830895EF92FF920F931F93CF93DF9392
:10049000EC0181E0888F9B8D8C8D98131AC0E889C0
:1004A000F989808185FF15C09FB7F894EE89FF898F
:1004B0006083E889F98980818370806480839FBF2D
:1004C00081E090E0DF91CF911F910F91FF90EF902D
:1004D0000895F62E0B8D10E00F5F1F4F0F7311273D
:1004E000E02E8C8D8E110CC00FB607FCFACFE88978
:1004F000F989808185FFF5CFCE010E942002F1CFDE
:10050000EB8DEC0FFD2FF11DE35AFF4FF0829FB7EB
:10051000F8940B8FEA89FB8980818062CFCFCF93DB
:10052000DF93EC01888D8823B9F0AA89BB89E8891B
:10053000F9898C9185FD03C0808186FD0DC00FB6C1
:1005400007FCF7CF8C9185FFF2CF808185FFEDCF3F
:10055000CE010E942002E9CFDF91CF910895209132
:100560005101260F3327331F21323105ECF420913E
:100570002402FC0190E080E0243069F082E00895DC
:10058000A09151012191AC014F5C5E4FA40FB52F9A
:10059000B11D2C930196861798F380915101680F35
:1005A0006093510180E0089581E008951092240243
:1005B00081E0809323021092FE0161E082E10E94BB
:1005C000FF0061E083E10E94FF00E9EBF0E0808141
:1005D0008E7F808380818D7F808388E48093B800C4
:1005E00085E48093BC000895CF93DF9391E09093CE
:1005F00030018823B9F0C091B800D091BA00809141
:10060000BC008A7B8093BC0060E082E10E94FF0016
:1006100060E083E10E94FF000E94D602D093BA00FE
:10062000C093B800DF91CF9108958F929F92AF92BF
:10063000BF92CF92DF92EF92FF920F931F93CF93CF
:10064000DF93D0914D02D13208F0D7C0182FC0915E
:100650004C020E943F016B017C01809124028111B8
:100660006BC082E080932402109323028FEF80936B
:10067000220210922102D0932002ACE2B2E0E0E02C
:10068000F2E080E0D81391C01092FF018091FF0149
:10069000CC0FC82BC093FF018091FE01813009F07F
:1006A00088C01092FE010E943F016B017C01809185
:1006B000FF018093BB008091260290912702A091B8
:1006C0002802B0912902892B8A2B8B2BA1F00E9442
:1006D0003F010091260210912702209128023091BB
:1006E00029026C197D098E099F090617170728072B
:1006F000390708F442C08091BC0083FDD8CF85EC57
:100700008093BC000E943F016B017C018091240218
:10071000823009F450C0809122028F3F09F46FC0EB
:1007200080912202803209F46CC0809122028033D1
:1007300009F469C084E026C08091260290912702C6
:10074000A0912802B0912902892B8A2B8B2B09F4C6
:1007500084CF0E943F018090260290902702A090B3
:100760002802B09029026C197D098E099F0986160E
:100770009706A806B90608F070CF809125020E945E
:10078000F40285E010922B0210924D0210922A0280
:10079000DF91CF911F910F91FF90EF90DF90CF905D
:1007A000BF90AF909F908F9008959D9191938F5F90
:1007B00069CF85EEA5CF8091260290912702A09166
:1007C0002802B0912902892B8A2B8B2B09F49ECF0A
:1007D0000E943F01009126021091270220912802D9
:1007E000309129026C197D098E099F090617170798
:1007F0002807390708F08ACFC0CF81E0C3CF80E057
:10080000C1CF82E0BFCF83E0BDCF1F93CF93DF93F3
:10081000EA01122FDC0111968D919C91DC01ED9182
:10082000FC910280F381E02D0995C817D90729F4BE
:10083000812F0E94150391E0811190E0892FDF91B3
:10084000CF911F910895CF93DF93EC018B81882383
:10085000A1F0888191E090932A0280934C0210923B
:100860002B0210924D0281E00E94150391E081114C
:1008700090E0892FDF91CF9108951092DD011092C1
:10088000DC0110922B0210924D020E94D6028BEADC
:1008900090E09093B1018093B0018CEA90E0909346
:1008A000AF018093AE0181E08B83CE010E942304CF
:1008B000982F8111CECFDDCF0895E091DD01809199
:1008C000DC01E81730F4F0E0E252FE4F808190E066
:1008D00008958FEF9FEF08959091DD018091DC01E5
:1008E0002FEF3FEF981748F4E92FF0E0E252FE4F68
:1008F000208130E09F5F9093DD01C90108958091D0
:10090000DC019091DD01891B990B0895CF92DF9254
:10091000EF92FF920F931F93CF93DF937C01CB0154
:100920008A0120912A02222389F0EB016B01C40E77
:10093000D51ECC15DD0569F06991D701ED91FC91CB
:100940000190F081E02DC7010995F3CF642F0E943B
:10095000AF02C801DF91CF911F910F91FF90EF90EF
:10096000DF90CF900895CF93DF931F92CDB7DEB77E
:10097000698320912A022223F9F020914D0220322E
:1009800058F021E030E0FC013383228390E080E0E6
:100990000F90DF91CF91089580912B02E82FF0E026
:1009A000E45DFD4F998190838F5F80932B0280934C
:1009B0004D0281E090E0ECCF61E0CE0101960E9413
:1009C000AF02F7CF90E080E008958F929F92AF92B0
:1009D000BF92FF920F931F93CF93DF93FC01F080A0
:1009E0008BE08F1508F44AC0828108E512E0081BED
:1009F000110987FD1395000F111F000F111F818131
:100A0000C8E8D0E0C81BD10987FDD395CC0FDD1F06
:100A1000CC0FDD1F4E010D2E000CAA08BB0898015B
:100A2000012E000C440B550B281939094A095B09A2
:100A3000DB010E948B1024EB30E040E050E00E948C
:100A40006110820E931EA41EB51E8C169D062CF0FE
:100A5000E801801691060CF4E4012297CC0FDD1F0B
:100A60002FB7F8948F2D90E0FC01EE0FFF1FE80FD9
:100A7000F91FEC58FE4FD283C1832FBFDF91CF9176
:100A80001F910F91FF90BF90AF909F908F9008950E
:100A9000892B79F41092800082E08093810010927B
:100AA000850010928400B19A80916F0082608093DB
:100AB0006F0008951F93CF93DF9300D000D01F9253
:100AC000CDB7DEB7880F880F8A5F89831A827B8350
:100AD0004C835D838091030390910403FC01248186
:100AE000358125303105E0F0208111E010932A0294
:100AF00020934C0210922B0210924D0221E045E00F
:100B000050E0BE016F5F7F4F0E94050481270F9068
:100B10000F900F900F900F90DF91CF911F9108953C
:100B200081E0F5CFAB016F3F9FE0790730F050E0F7
:100B300040E060E070E10C945A05672B11F440E04E
:100B400050E170E060E0F7CFCF93DF9300D0CDB7F6
:100B5000DEB789836A838091030390910403FC01CB
:100B6000248135812230310590F0208131E03093AD
:100B70002A0220934C0210922B0210924D0221E087
:100B800042E050E0BE016F5F7F4F0E9405040F906E
:100B90000F90DF91CF9108952F923F924F925F92E5
:100BA0006F927F928F929F92AF92BF92CF92DF927D
:100BB000EF92FF920F931F93CF93DF931F92CDB7C6
:100BC000DEB76B017C0120E030E040E85FE30E948B
:100BD000431187FDECC020E030EC4AE555E4C70145
:100BE000B6010E94A21218160CF4E8C06091050329
:100BF0007091060380910703909108030E94F01101
:100C00004B015C0120E030E040E855E4C701B6014B
:100C10000E94A7129B01AC01C501B4010E944811BA
:100C200020E030E040E05FE30E94D71020E030E0B9
:100C300040E85FE30E94D6106B017C0120E030E0C9
:100C400040E450E40E94431187FDC0C020E030E042
:100C50004FE753E4C701B6010E94A21218160CF424
:100C6000BBC0C701B6010E94C111962E1982E09047
:100C70000303F0900403D70114968D919C9115976E
:100C8000892B09F41AC18C9191E090932A028093E8
:100C90004C0210922B0210924D0220E041E050E0F5
:100CA000BE016F5F7F4FC7010E940504882309F4CE
:100CB00004C18824839485EC382EF701C480D58044
:100CC00001E0C114D10409F400E0A02EB12CD70139
:100CD0002C900E943F012B013C0180912402811144
:100CE00082C0102F8092240200932302BFEFB093A2
:100CF0002202109221028FEF800F809320028092B7
:100D0000FF018091FF01220C282A2092FF0180918F
:100D1000FE01813009F0A8C01092FE010E943F013F
:100D20002B013C018091FF018093BB008091260242
:100D300090912702A0912802B0912902892B8A2B39
:100D40008B2BA1F00E943F012091260230912702B7
:100D50004091280250912902641975098609970962
:100D6000261737074807590708F45EC08091BC0072
:100D700083FDD8CF3092BC000E943F012B013C0183
:100D800080912402813009F473C080912102801780
:100D900010F410912102E0E0F2E0AEEDB1E080E06D
:100DA000811709F446C091919D938F5FF9CFC12CB3
:100DB000D12C40E8E42E4FE3F42E18CFC12C30ECB8
:100DC000D32E3AE5E32E35E4F32E10CFC12CD12CEF
:100DD00020E4E22EFE2C45CFC12CD12C9FE7E92E3A
:100DE00093E4F92E3ECF8091260290912702A091A4
:100DF0002802B0912902892B8A2B8B2B09F46DCF05
:100E00000E943F0120912602309127024091280242
:100E10005091290264197509860997092617370721
:100E20004807590708F059CF809125020E94F40223
:100E300010E01092DD011093DC011A151B04E9F596
:100E400090E080E08A159B05A8F5D70111968D9159
:100E50009C91DC01ED91FC910284F385E02D0995D4
:100E6000898381E090E0EECFE5EEE093BC0084CF93
:100E70008091260290912702A0912802B091290228
:100E8000892B8A2B8B2B09F47BCF0E943F01209169
:100E900026023091270240912802509129026419BC
:100EA000750986099709261737074807590708F073
:100EB00067CFBACFCD2809F400CF1981612F6F76A3
:100EC000606180E00E94A405692D8EEF0E94A40558
:100ED000612F80E00E94A40565E070E080E090E072
:100EE0000E946401612F606A80E00E94A4050F9057
:100EF000DF91CF911F910F91FF90EF90DF90CF90F6
:100F0000BF90AF909F908F907F906F905F904F9029
:100F10003F902F9008951F93CF93DF93EB01880F9D
:100F200011E0180F1C161D06A4F440E050E170E01B
:100F300060E00E945A05BE0124E0660F771F2A95E3
:100F4000E1F7615F7F4F812FDF91CF911F910C946B
:100F50009205209781F450E040E060E070E10E944B
:100F60005A0550E040E060E070E1812FDF91CF91C1
:100F70001F910C945A05219694E0CC0FDD1F9A9591
:100F8000E1F761E070E06C1B7D0B0E94920540E090
:100F900050E170E060E0E9CFCF92DF92EF92FF92F4
:100FA000CF93DF938FE00E942D01EC0180E10E943E
:100FB0002D018C1B9D0BBC01990F880B990B0E9476
:100FC000F2116093D8017093D9018093DA01909364
:100FD000DB016091D8017091D9018091DA01909183
:100FE000DB012091D4013091D5014091D60150917F
:100FF000D7010E94A7126093D0017093D101809312
:10100000D2019093D3016091CC017091CD01809178
:10101000CE019091CF012091C8013091C90140913A
:10102000CA015091CB010E94A7126093C401709332
:10103000C5018093C6019093C7016091D80170915A
:10104000D9018091DA019091DB012091C0013091AA
:10105000C1014091C2015091C301C090BC01D09028
:10106000BD01E090BE01F090BF010E94D610A70123
:1010700096010E94A7126093B8017093B901809302
:10108000BA019093BB016091D0017091D101809120
:10109000D2019091D3012091C4013091C5014091BA
:1010A000C6015091C701C090B801D090B901E0903D
:1010B000BA01F090BB010E94D710A70196010E94CF
:1010C000D7106093B4017093B5018093B6019093EB
:1010D000B7016091B4017091B5018091B601909112
:1010E000B701C090B401D090B501E090B601F09086
:1010F000B7010E94BA11CAE5D0E0C61BD70BD7FFD3
:1011000002C0D0E0C0E0C739D10514F0C6E9D0E094
:10111000C701B6010E94BA11665A7F4F77FF02C01D
:1011200070E060E06739710514F066E970E0719570
:101130006195710990E080E00E948B07BE0181E01B
:1011400090E00E948B07CE01DF91CF91FF90EF904E
:10115000DF90CF900895CF93DF93EC0170E060E0D3
:1011600090E080E00E948B0770E060E081E090E01A
:101170000E948B07209741F0BE01DD0F880B990B71
:10118000DF91CF910C946401DF91CF910895CF93BB
:10119000DF93EC011092B3011092B2010E94CC07D0
:1011A0008091B2019091B3010597C4F36627772728
:1011B0006C1B7D0B90E080E00E948B07BE0181E0FC
:1011C00090E0DF91CF910C948B07CF93DF938FE06A
:1011D0000E942D01843F91406CF460E570E090E046
:1011E00080E00E948B0760E570E081E090E00E9463
:1011F0008B07EDCF8FE00E942D01EC0180E10E9472
:101200002D01C81BD90BC739D1056CF060E570E022
:1012100090E080E00E948B0760E570E081E090E064
:101220000E948B07E7CF80E590E0DF91CF910C948F
:10123000C7080F931F93CF93DF93EB01002711276C
:10124000081B190BB80190E080E00E948B07B801E1
:1012500081E090E00E948B07209771F0BE01DD0FC6
:10126000880B990B0E94640190E080E0DF91CF91A0
:101270001F910F910C94AB08DF91CF911F910F91AB
:10128000089585ED8093BC008091260290912702FD
:10129000A0912802B09129020796A11DB11D23E05B
:1012A000B695A795979587952A95D1F72091BC007B
:1012B00024FD03C01092240208954091260250910B
:1012C00027026091280270912902452B462B472B5B
:1012D00069F30097A105B10541F025E32A95F1F7DF
:1012E00000000197A109B109E1CF809125020C947A
:1012F000F4021F920F920FB60F9211242F933F9377
:101300008F939F93AF93BF938091A6019091A70174
:10131000A091A801B091A9013091A50123E0230F6C
:101320002D3758F50196A11DB11D2093A50180937D
:10133000A6019093A701A093A801B093A901809161
:10134000AA019091AB01A091AC01B091AD010196C1
:10135000A11DB11D8093AA019093AB01A093AC0194
:10136000B093AD01BF91AF919F918F913F912F911C
:101370000F900FBE0F901F90189526E8230F02962E
:10138000A11DB11DD2CF1F920F920FB60F92112443
:101390002F933F934F935F936F937F938F939F937D
:1013A000AF93BF93EF93FF93E0910201F09103019C
:1013B0000995FF91EF91BF91AF919F918F917F918F
:1013C0006F915F914F913F912F910F900FBE0F90B2
:1013D0001F9018951F920F920FB60F9211242F9302
:1013E0003F934F935F936F937F938F939F93AF93AD
:1013F000BF93EF93FF93E0910001F09101010995F4
:10140000FF91EF91BF91AF919F918F917F916F91DC
:101410005F914F913F912F910F900FBE0F901F90B2
:1014200018951F920F920FB60F9211242F933F938E
:101430004F935F936F937F938F939F93AF93BF93DC
:10144000EF93FF938EE492E00E942002FF91EF91D0
:10145000BF91AF919F918F917F916F915F914F91CC
:101460003F912F910F900FBE0F901F9018951F92D4
:101470000F920FB60F9211242F938F939F93EF9398
:10148000FF93E0915E02F0915F028081E09164023F
:10149000F091650282FD1BC09081809167028F5F91
:1014A0008F7320916802821741F0E0916702F0E0AB
:1014B000E25BFD4F958F80936702FF91EF919F91C3
:1014C0008F912F910F900FBE0F901F9018958081D4
:1014D000F4CF1F920F920FB60F9211242F933F93C8
:1014E0004F935F936F937F938F939F93AF93BF932C
:1014F000EF93FF9380919E0190919F018093B200A2
:101500008091A1019091A201A091A301B091A401A9
:101510000196A11DB11D8093A1019093A201A093FA
:10152000A301B093A4018091A1019091A201A09187
:10153000A301B091A40140919A0150919B01609147
:101540009C0170919D0184179507A607B70710F1BC
:101550008091A00181111EC081E08093A001809143
:10156000A1019091A201A091A301B091A401841BBB
:10157000950BA60BB70B8093A1019093A201A093AA
:10158000A301B093A401E0919801F091990109950C
:101590001092A001FF91EF91BF91AF919F918F9118
:1015A0007F916F915F914F913F912F910F900FBE5F
:1015B0000F901F9018951F920F920FB60F92112443
:1015C0002F933F934F935F936F937F938F939F934B
:1015D000AF93BF93EF93FF938091B900887F8036DC
:1015E00009F44AC0F0F5883209F4A7C018F5803133
:1015F00009F49BC0B8F4882309F4F9C0883009F4D1
:1016000094C0FF91EF91BF91AF919F918F917F9186
:101610006F915F914F913F912F910F900FBE0F905F
:101620001F901895883109F488C0803251F7809353
:10163000220214C0803409F49DC040F48033B9F311
:101640008833F9F68093220285ECB0C0803509F426
:1016500085C0883509F496C0883499F60E944109FE
:10166000D0CF883909F48CC038F5883729F050F488
:10167000883611F0803729F683E080932402109297
:10168000730157C0883809F47BC0803919F080385D
:1016900009F0B7CF80917301803208F071C0E091FA
:1016A000730181E08E0F809373018091BB00F0E0A5
:1016B000ED5AFE4F80833DC0803B39F0E0F4803A24
:1016C00009F479C0883A09F09CCF84E08093240221
:1016D0001092520110925101E091B001F091B101CC
:1016E00009958091510181110FC081E080935101D2
:1016F0001092310109C0803C09F4A6CF883C09F45E
:10170000A3CF883B09F07DCFE091520181E08E0F9D
:1017100080935201F0E0EF5CFE4F80818093BB002C
:10172000909152018091510129C08091FF018093D5
:10173000BB0085EC8093BC0064CF90912102809126
:101740002002981758F5E091210281E08E0F8093D6
:101750002102F0E0E050FE4F8081E9CFE0912102CC
:1017600081E08E0F809321028091BB00F0E0E05079
:10177000FE4F808390912102809120029817C8F239
:1017800085E8D8CFE091210281E08E0F809321027D
:101790008091BB00F0E0E050FE4F808380912302F7
:1017A00081115CCF81E08093FE0184EA8093BC00CC
:1017B0001092240226CF85EC8093BC001092240264
:1017C00080917301803230F4E0917301F0E0ED5AC2
:1017D000FE4F10826091730170E0E091AE01F091D4
:1017E000AF0183E591E00995109273010ACF109241
:1017F000220234CF1F920F920FB60F9211242F9313
:101800003F934F935F936F937F938F939F93AF9388
:10181000BF93CF93DF93EF93FF9380912E01C091FD
:101820002F01D0E087FF24C0109285001092840021
:1018300080912E018F5F80932E0180912E01082EC2
:10184000000C990B8C179D0724F480912E018C308D
:10185000C4F18091840090918500049680349C4965
:1018600008F47AC08091840090918500049676C037
:1018700080912E01082E000C990B8C179D07C4F641
:10188000E0912E018E2FEE0F990BFC01EE0FFF1F42
:10189000E80FF91FEC58FE4F808186FFC9CFE09119
:1018A0002E018E2FEE0F990BFC01EE0FFF1FE80F9C
:1018B000F91FEC58FE4F808160E08F730E94FF009B
:1018C000B7CF2091840030918500E0912E018E2FBA
:1018D000EE0F990BFC01EE0FFF1FE80FF91FEC58FC
:1018E000FE4F81819281820F931F90938900809394
:1018F0008800E0912E018E2FEE0F990BFC01EE0F68
:10190000FF1FE80FF91FEC58FE4F808186FF11C0C2
:10191000E0912E018E2FEE0F990BFC01EE0FFF1FB1
:10192000E80FF91FEC58FE4F808161E08F730E9431
:10193000FF00FF91EF91DF91CF91BF91AF919F9108
:101940008F917F916F915F914F913F912F910F9068
:101950000FBE0F901F90189580E49CE9909389002A
:10196000809388008FEF80932E01E3CFFC0190914C
:101970002F019C3098F481E0890F80932F01908390
:10198000892F90E0FC01EE0FFF1FE80FF91FEC58C4
:10199000FE4F88EB9BE09283818308958FEF8083D5
:1019A0000895CF93DF93EEE4F2E01382128288EE83
:1019B00093E0A0E0B0E084839583A683B7832EE014
:1019C00031E03183208325EC30E03587248724EC17
:1019D00030E03787268720EC30E0318B208B21ECFC
:1019E00030E0338B228B22EC30E0358B248B26ECDD
:1019F00030E0378B268B118E128E138E148EC4EF2F
:101A0000D2E01B821A828C839D83AE83BF8380E2E7
:101A100091E09983888381EF92E00E94B60C8EEE6C
:101A200092E00E94B60C8BEE92E00E94B60CE0E0D1
:101A3000F3E080E48083D283C18314821382DF9138
:101A4000CF910895789484B5826084BD84B5816017
:101A500084BD85B5826085BD85B5816085BD809179
:101A60006E00816080936E001092810080918100F1
:101A700082608093810080918100816080938100E9
:101A8000809180008160809380008091B1008460AB
:101A90008093B1008091B00081608093B00080910C
:101AA0007A00846080937A0080917A0082608093CB
:101AB0007A0080917A00816080937A0080917A0028
:101AC000806880937A001092C100E0915E02F091EC
:101AD0005F0282E08083E0915A02F0915B02108203
:101AE000E0915C02F0915D028FEC808310926602BF
:101AF000E0916202F091630286E08083E0916002EF
:101B0000F0916102808180618083E0916002F091B8
:101B10006102808188608083E0916002F0916102BF
:101B2000808180688083E0916002F0916102808111
:101B30008F7D80838091EE028C3008F042C086E079
:101B40000E948C008091EE02282F30E0F901EE0F08
:101B5000FF1FE20FF31FEC58FE4F9081907C9660C0
:101B600090831092EF021092F0022CE0622F0E94FC
:101B7000C41090E0829FB001112430E020E0AB015E
:101B8000420F531FFA01EE0FFF1FE40FF51FEC5831
:101B9000FE4F408146FD07C02F5F3F4F2C3031057F
:101BA00071F70E944805E091EE028E2F90E0FC0153
:101BB000EE0FFF1FE80FF91FEC58FE4F8081806485
:101BC00080838091EB028C3008F042C087E00E9455
:101BD0008C008091EB02282F30E0F901EE0FFF1FFF
:101BE000E20FF31FEC58FE4F9081907C976090833A
:101BF0001092EC021092ED022CE0622F0E94C410B1
:101C000090E0829FB001112430E020E0AB01420F50
:101C1000531FFA01EE0FFF1FE40FF51FEC58FE4FA4
:101C2000408146FD07C02F5F3F4F2C30310571F7D3
:101C30000E944805E091EB028E2F90E0FC01EE0F30
:101C4000FF1FE80FF91FEC58FE4F808180648083EE
:101C50006CE370E08EEE92E00E94E5046AE570E0CD
:101C60008BEE92E00E94E5041092B3011092B20153
:101C700083E393E3A3EBBEE38093D4019093D50178
:101C8000A093D601B093D7011092C8011092C90158
:101C90001092CA011092CB011092BC011092BD01AA
:101CA0001092BE011092BF011092C0011092C101AA
:101CB0001092C2011092C3011092D8011092D90162
:101CC0001092DA011092DB011092CC011092CD013A
:101CD0001092CE011092CF01C2E08C2F0E948C0096
:101CE000CF5FCA30D1F7809103039091040300972E
:101CF00011F00E94B01386E090E00E941413EC01F2
:101D000080910103909102032091000328839A831C
:101D100089831B8280E290E09D838C83D0930403AF
:101D2000C09303031092DD011092DC0110922B028C
:101D300010924D020E94D6028BEA90E09093B1017E
:101D40008093B0018CEA90E09093AF018093AE0154
:101D500081E08B83CE010E9423048823E1F060E8B8
:101D600080E00E94A4056AE070E080E090E00E94BC
:101D7000640180E498E7ADE7B1E0809305039093B8
:101D80000603A0930703B093080360E070E08AE7BE
:101D900094E40E94CC0580EC9CEFABE9B1E0809329
:101DA000050390930603A0930703B093080360E034
:101DB00070E088EC93E40E94CC058CE08093B8003E
:101DC00084E690E0A0E0B0E080939A0190939B01BC
:101DD000A0939C01B0939D0187E991E090939901B4
:101DE00080939801809170008E7F80937000809125
:101DF000B0008C7F8093B0008091B100877F80938A
:101E0000B1008091B6008F7D8093B6008091700004
:101E10008D7F809370008091B10084608093B100C9
:101E20008091B1008C7F8093B10086E090E0909328
:101E30009F0180939E011092A1011092A201109225
:101E4000A3011092A4011092A00180919E01909193
:101E50009F018093B2008091700081608093700038
:101E600000E010E0C4E0D0E00E94CC078CE00E94CB
:101E7000D600892BC9F388EE93E00E94AB0880E579
:101E800090E00E94C708219779F70E94CC078CE068
:101E90000E94D600892BC9F30E94E5080E94CC0756
:101EA0008CE00E94D600892BC9F388EE93E00E9453
:101EB000AB0880E10E942D01843F91403CF470E02A
:101EC00060E080E590E00E941909F3CF8FE00E9466
:101ED0002D01EC0180E10E942D01C81BD90BC739EF
:101EE000D1053CF070E060E080E590E00E941909C7
:101EF000EDCF6CE271E086E490E00E94190980E188
:101F00000E942D01843F91402CF470E060E080E558
:101F100090E0F3CF8FE00E942D01EC0180E10E9460
:101F20002D01C81BD90BC739D1053CF070E060E02A
:101F300080E590E00E941909EDCF80E590E00E94D5
:101F4000C7080E94CC078CE00E94D600892BC9F3F9
:101F50000E94E5081092B3011092B2010E94CC07D2
:101F60008091B2019091B3010497C4F30E94CC0711
:101F70008CE00E94D600892BC9F30E94E5081092DC
:101F8000B3011092B2010E94CC078091B2019091EE
:101F9000B3014A97C4F30E94CC078CE00E94D6009C
:101FA000892BC9F30E94E5080E94CC078BE00E94B0
:101FB000D600892BC9F388EE93E00E94AB0880E538
:101FC00090E00E94C7080E94CC078BE00E94D600D8
:101FD000892BC9F388EE93E00E94AB0880E590E07E
:101FE0000E94C7080E94CC078BE00E94D600892B74
:101FF000C9F388EE93E00E94AB0880E590E00E9470
:10200000C7080E94CC078CE00E94D600892BC9F338
:102010000E94E5081092B3011092B2010E94CC0711
:102020008091B2019091B3014097C4F368E275E0EA
:1020300086E490E00E94190988EB9BE00E94AB08BF
:102040001092B3011092B2010E94CC078091B201AC
:102050009091B301C397C4F30E94CC078CE00E9417
:10206000D600892BC9F30E94E5081092B3011092A3
:10207000B2010E94CC078091B2019091B3014897C0
:10208000C4F380ED97E00E94AB081092B301109268
:10209000B2010E94CC078091B2019091B301869762
:1020A000C4F380E19EE00E94AB080115110509F41C
:1020B000D9CE0E940C02882309F4D4CE0E940000DD
:1020C000D1CE052E97FB1EF400940E94781057FD88
:1020D00007D00E94931007FC03D04EF40C947810A4
:1020E00050954095309521953F4F4F4F5F4F089544
:1020F00090958095709561957F4F8F4F9F4F089574
:102100000E94B510A59F900DB49F900DA49F800DC7
:10211000911D11240895B7FF0C9480100E94801027
:10212000821B930B0895A1E21A2EAA1BBB1BFD0173
:102130000DC0AA1FBB1FEE1FFF1FA217B307E407A6
:10214000F50720F0A21BB30BE40BF50B661F771FFE
:10215000881F991F1A9469F76095709580959095DE
:102160009B01AC01BD01CF010895A29FB001B39FB7
:10217000C001A39F700D811D1124911DB29F700D90
:10218000811D1124911D0895991B79E004C0991FA8
:10219000961708F0961B881F7A95C9F780950895C1
:1021A000EE0FFF1F0590F491E02D09945058BB27C6
:1021B000AA270E94EE100C9468120E945A1238F05E
:1021C0000E94611220F039F49F3F19F426F40C9418
:1021D00057120EF4E095E7FB0C945112E92F0E9480
:1021E000791258F3BA17620773078407950720F02E
:1021F00079F4A6F50C949B120EF4E0950B2EBA2FF1
:10220000A02D0B01B90190010C01CA01A0011124FC
:10221000FF27591B99F0593F50F4503E68F11A16A8
:10222000F040A22F232F342F4427585FF3CF469539
:1022300037952795A795F0405395C9F77EF41F165B
:10224000BA0B620B730B840BBAF09150A1F0FF0F25
:10225000BB1F661F771F881FC2F70EC0BA0F621F11
:10226000731F841F48F4879577956795B795F79501
:102270009E3F08F0B0CF9395880F08F09927EE0F96
:102280009795879508950E942D1208F481E008958E
:102290000E945C110C9468120E94611258F00E9416
:1022A0005A1240F029F45F3F29F00C945112511159
:1022B0000C949C120C9457120E94791268F3992383
:1022C000B1F3552391F3951B550BBB27AA27621732
:1022D0007307840738F09F5F5F4F220F331F441F3F
:1022E000AA1FA9F335D00E2E3AF0E0E832D0915073
:1022F0005040E695001CCAF72BD0FE2F29D0660F60
:10230000771F881FBB1F261737074807AB07B0E8A2
:1023100009F0BB0B802DBF01FF2793585F4F3AF0A8
:102320009E3F510578F00C9451120C949C125F3F23
:10233000E4F3983ED4F3869577956795B795F7952E
:102340009F5FC9F7880F911D9695879597F9089516
:10235000E1E0660F771F881FBB1F621773078407B2
:10236000BA0720F0621B730B840BBA0BEE1F88F7C1
:10237000E09508950E94C1116894B1110C949C12CB
:1023800008950E94811288F09F5798F0B92F9927DD
:10239000B751B0F0E1F0660F771F881F991F1AF050
:1023A000BA95C9F714C0B13091F00E949B12B1E008
:1023B00008950C949B12672F782F8827B85F39F007
:1023C000B93FCCF3869577956795B395D9F73EF4E9
:1023D00090958095709561957F4F8F4F9F4F089591
:1023E000E89409C097FB3EF49095809570956195AF
:1023F0007F4F8F4F9F4F9923A9F0F92F96E9BB2765
:102400009395F695879577956795B795F111F8CFE0
:10241000FAF4BB0F11F460FF1BC06F5F7F4F8F4F4B
:102420009F4F16C0882311F096E911C0772321F041
:102430009EE8872F762F05C0662371F096E8862FD9
:1024400070E060E02AF09A95660F771F881FDAF730
:10245000880F9695879597F90895990F0008550F5D
:10246000AA0BE0E8FEEF16161706E807F907C0F01A
:1024700012161306E407F50798F0621B730B840B22
:10248000950B39F40A2661F0232B242B252B21F4FC
:1024900008950A2609F4A140A6958FEF811D811D9C
:1024A000089597F99F6780E870E060E008959FEFD6
:1024B00080EC089500240A941616170618060906DB
:1024C000089500240A9412161306140605060895AA
:1024D000092E0394000C11F4882352F0BB0F40F432
:1024E000BF2B11F460FF04C06F5F7F4F8F4F9F4F72
:1024F000089557FD9058440F551F59F05F3F71F0F4
:102500004795880F97FB991F61F09F3F79F087955A
:102510000895121613061406551FF2CF4695F1DFE3
:1025200008C0161617061806991FF1CF8695710573
:10253000610508940895E894BB2766277727CB01A7
:1025400097F908950E942D1208F48FEF08950E94C4
:10255000BA120C9468120E945A1238F00E9461124A
:1025600020F0952311F00C9451120C945712112461
:102570000C949C120E94791270F3959FC1F3950FF1
:1025800050E0551F629FF001729FBB27F00DB11DF7
:10259000639FAA27F00DB11DAA1F649F6627B00D87
:1025A000A11D661F829F2227B00DA11D621F739F70
:1025B000B00DA11D621F839FA00D611D221F749F7E
:1025C0003327A00D611D231F849F600D211D822FC5
:1025D000762F6A2F11249F5750409AF0F1F08823EC
:1025E0004AF0EE0FFF1FBB1F661F771F881F915019
:1025F0005040A9F79E3F510580F00C9451120C9465
:102600009C125F3FE4F3983ED4F3869577956795E7
:10261000B795F795E7959F5FC1F7FE2B880F911D42
:102620009695879597F908950F931F93CF93DF930E
:102630008230910510F482E090E0E0910B03F0917C
:102640000C0330E020E0B0E0A0E0309799F42115D1
:10265000310509F44AC0281B390B24303105D8F55F
:102660008A819B816115710589F1FB0193838283C6
:10267000FE0111C040815181028113814817590721
:10268000E0F04817590799F4109761F012960C93EF
:10269000129713961C933296CF01DF91CF911F9121
:1026A0000F91089500930B0310930C03F4CF2115A1
:1026B000310551F04217530738F0A901DB019A01A7
:1026C000BD01DF01F801C1CFEF01F9CF90930C03F9
:1026D00080930B03CDCFFE01E20FF31F8193919303
:1026E0002250310939832883D7CF209109033091B3
:1026F0000A03232B41F42091060130910701309306
:102700000A0320930903209104013091050121154A
:10271000310541F42DB73EB74091080150910901B0
:10272000241B350BE0910903F0910A03E217F3072C
:10273000A0F42E1B3F0B2817390778F0AC014E5F31
:102740005F4F2417350748F04E0F5F1F50930A0361
:1027500040930903819391939FCFF0E0E0E09CCFF9
:10276000CF93DF930097E9F0FC0132971382128236
:10277000A0910B03B0910C03ED0130E020E0109725
:10278000A1F420813181820F931F209109033091A0
:102790000A032817390709F061C0F0930A03E09390
:1027A0000903DF91CF910895EA01CE17DF07E8F51D
:1027B0004A815B819E0141155105B1F7E901FB8317
:1027C000EA8349915991C40FD51FEC17FD0761F4B5
:1027D000808191810296840F951FE90199838883F6
:1027E000828193819B838A83F0E0E0E012968D9151
:1027F0009C9113970097B9F52D913C911197CD01BC
:102800000296820F931F2091090330910A03281723
:10281000390739F6309751F510920C0310920B03DB
:10282000B0930A03A0930903BCCFD383C283408132
:102830005181840F951FC817D90761F44E5F5F4F10
:1028400088819981480F591F518340838A819B81D8
:10285000938382832115310509F0B0CFF0930C03E7
:10286000E0930B039ECFFD01DC01C0CF13821282E7
:06287000D7CFF894FFCF62
:10287600A101A10100000D0380000000000042023A
:10288600A201CF018F020002DE01F201000000006A
:0E289600B3048604E2045C047F046C045D0459
:00000001FF
