:100000000C9462000C94990A0C94720A0C948A0065
:100010000C948A000C948A000C948A000C948A0038
:100020000C948A000C94180B0C948A000C94A90C64
:100030000C948A000C948A000C948A000C948A0018
:100040000C94280A0C948A000C94E60A0C94C00ABA
:100050000C948A000C948A000C948A000C948A00F8
:100060000C948A0B0C948A000000000023002600E8
:10007000290000000008000201000003040700003E
:1000800000000000000000000000250028002B00F8
:1000900000000000240027002A00040404040404D3
:1000A0000404020202020202030303030303010227
:1000B00004081020408001020408102001020408F6
:1000C0001020800D11241FBECFEFD8E0DEBFCDBFC2
:1000D00011E0A0E0B1E0EEE2FAE202C005900D927C
:1000E000AE32B107D9F723E0AEE2B1E001C01D9214
:1000F000AD30B207E1F710E0C2E6D0E004C02197CE
:10010000FE010E94AC11C136D107C9F70E94D10D82
:100110000C9415150C94000090E0FC01E255FF4F83
:10012000249186569F4FFC018491882399F090E09A
:10013000880F991FFC01E057FF4FA591B491FC0176
:10014000EA57FF4F859194918FB7F894EC91E22B89
:10015000EC938FBF089508950895833081F028F4BB
:10016000813099F08230A9F008958730A9F0883065
:10017000C9F08430B1F4809180008F7D03C08091FC
:1001800080008F7780938000089584B58F7784BD39
:10019000089584B58F7DFBCF8091B0008F778093D9
:1001A000B00008958091B0008F7DF9CFCF93DF9399
:1001B000282F30E0F901EE58FF4F8491F901E25504
:1001C000FF4FD491F901E656FF4FC491CC23A1F023
:1001D00081110E94AD00EC2FF0E0EE0FFF1FE859F7
:1001E000FF4FA591B491EC91ED2381E090E009F4EB
:1001F00080E0DF91CF91089580E090E0FACF1F93E7
:10020000CF93DF93282F30E0F901EE58FF4F849110
:10021000F901E255FF4FD491F901E656FF4FC49121
:10022000CC23A9F0162F81110E94AD00EC2FF0E035
:10023000EE0FFF1FEA57FF4FA591B4918FB7F894C7
:10024000EC91111108C0D095DE23DC938FBFDF91B4
:10025000CF911F910895DE2BF8CF8E50806480934C
:100260007C0080917A00806480937A0080917A008B
:1002700086FDFCCF809178009091790008953FB77A
:10028000F8948091AA019091AB01A091AC01B0913A
:10029000AD0126B5A89B05C02F3F19F00196A11D01
:1002A000B11D3FBFBA2FA92F982F8827BC01CD01C0
:1002B000620F711D811D911D42E0660F771F881F1F
:1002C000991F4A95D1F708958F929F92AF92BF924E
:1002D000CF92DF92EF92FF926B017C010E943F016F
:1002E0004B015C01C114D104E104F104B9F00E9496
:1002F0003F01681979098A099B09683E73408105A5
:10030000910580F321E0C21AD108E108F10888EED6
:10031000880E83E0981EA11CB11CE4CFFF90EF90E3
:10032000DF90CF90BF90AF909F908F900895809175
:10033000B2019091B30101969093B3018093B20101
:1003400008950895AF92BF92CF92DF92EF92FF92FD
:100350000F931F93CF93DF936C017B018B01040FED
:10036000151FEB015E01AE18BF08C017D10759F089
:100370006991D601ED91FC910190F081E02DC601CB
:100380000995892B79F7C501DF91CF911F910F91C5
:10039000FF90EF90DF90CF90BF90AF900895FC0159
:1003A000538D448D252F30E0842F90E0821B930BDA
:1003B000541710F0CF96089501970895FC01918D80
:1003C000828D981761F0A28DAE0FBF2FB11D5D9683
:1003D0008C91928D9F5F9F73928F90E008958FEF25
:1003E0009FEF0895FC01918D828D981731F0828DD9
:1003F000E80FF11D858D90E008958FEF9FEF089530
:10040000FC01918D228D892F90E0805C9F4F821B93
:1004100091098F73992708958EE492E00E9400025B
:1004200021E0892B09F420E0822F089580E090E0FC
:10043000892B29F00E940C0281110C940000089570
:10044000FC01A48DA80FB92FB11DA35ABF4F2C9149
:10045000848D90E001968F739927848FA689B78940
:100460002C93A089B1898C91837080648C93938D37
:10047000848D981306C00288F389E02D80818F7DDA
:1004800080830895EF92FF920F931F93CF93DF9392
:10049000EC0181E0888F9B8D8C8D98131AC0E889C0
:1004A000F989808185FF15C09FB7F894EE89FF898F
:1004B0006083E889F98980818370806480839FBF2D
:1004C00081E090E0DF91CF911F910F91FF90EF902D
:1004D0000895F62E0B8D10E00F5F1F4F0F7311273D
:1004E000E02E8C8D8E110CC00FB607FCFACFE88978
:1004F000F989808185FFF5CFCE010E942002F1CFDE
:10050000EB8DEC0FFD2FF11DE35AFF4FF0829FB7EB
:10051000F8940B8FEA89FB8980818062CFCFCF93DB
:10052000DF93EC01888D8823B9F0AA89BB89E8891B
:10053000F9898C9185FD03C0808186FD0DC00FB6C1
:1005400007FCF7CF8C9185FFF2CF808185FFEDCF3F
:10055000CE010E942002E9CFDF91CF910895209132
:100560007501260F3327331F21323105ECF420911A
:100570002402FC0190E080E0243069F082E00895DC
:10058000A09175012191AC014B5A5E4FA40FB52F7C
:10059000B11D2C930196861798F380917501680F11
:1005A0006093750180E0089581E00895109224021F
:1005B00081E0809323021092FE0161E082E10E94BB
:1005C000FF0061E083E10E94FF00E9EBF0E0808141
:1005D0008E7F808380818D7F808388E48093B800C4
:1005E00085E48093BC000895CF93DF9391E09093CE
:1005F00054018823B9F0C091B800D091BA0080911D
:10060000BC008A7B8093BC0060E082E10E94FF0016
:1006100060E083E10E94FF000E94D602D093BA00FE
:10062000C093B800DF91CF9108958F929F92AF92BF
:10063000BF92CF92DF92EF92FF920F931F93CF93CF
:10064000DF93D0914D02D13208F0D7C0182FC0915E
:100650004C020E943F016B017C01809124028111B8
:100660006BC082E080932402109323028FEF80936B
:10067000220210922102D0932002ACE2B2E0E0E02C
:10068000F2E080E0D81391C01092FF018091FF0149
:10069000CC0FC82BC093FF018091FE01813009F07F
:1006A00088C01092FE010E943F016B017C01809185
:1006B000FF018093BB008091260290912702A091B8
:1006C0002802B0912902892B8A2B8B2BA1F00E9442
:1006D0003F010091260210912702209128023091BB
:1006E00029026C197D098E099F090617170728072B
:1006F000390708F442C08091BC0083FDD8CF85EC57
:100700008093BC000E943F016B017C018091240218
:10071000823009F450C0809122028F3F09F46FC0EB
:1007200080912202803209F46CC0809122028033D1
:1007300009F469C084E026C08091260290912702C6
:10074000A0912802B0912902892B8A2B8B2B09F4C6
:1007500084CF0E943F018090260290902702A090B3
:100760002802B09029026C197D098E099F0986160E
:100770009706A806B90608F070CF809125020E945E
:10078000F40285E010922B0210924D0210922A0280
:10079000DF91CF911F910F91FF90EF90DF90CF905D
:1007A000BF90AF909F908F9008959D9191938F5F90
:1007B00069CF85EEA5CF8091260290912702A09166
:1007C0002802B0912902892B8A2B8B2B09F49ECF0A
:1007D0000E943F01009126021091270220912802D9
:1007E000309129026C197D098E099F090617170798
:1007F0002807390708F08ACFC0CF81E0C3CF80E057
:10080000C1CF82E0BFCF83E0BDCF1F93CF93DF93F3
:10081000EA01122FDC0111968D919C91DC01ED9182
:10082000FC910280F381E02D0995C817D90729F4BE
:10083000812F0E94150391E0811190E0892FDF91B3
:10084000CF911F910895CF93DF93EC018B81882383
:10085000A1F0888191E090932A0280934C0210923B
:100860002B0210924D0281E00E94150391E081114C
:1008700090E0892FDF91CF9108951092DD011092C1
:10088000DC0110922B0210924D020E94D6028BEADC
:1008900090E09093B1018093B0018CEA90E0909346
:1008A000AF018093AE0181E08B83CE010E942304CF
:1008B000982F8111CECFDDCF0895E091DD01809199
:1008C000DC01E81730F4F0E0E252FE4F808190E066
:1008D00008958FEF9FEF08959091DD018091DC01E5
:1008E0002FEF3FEF981748F4E92FF0E0E252FE4F68
:1008F000208130E09F5F9093DD01C90108958091D0
:10090000DC019091DD01891B990B0895CF92DF9254
:10091000EF92FF920F931F93CF93DF937C01CB0154
:100920008A0120912A02222389F0EB016B01C40E77
:10093000D51ECC15DD0569F06991D701ED91FC91CB
:100940000190F081E02DC7010995F3CF642F0E943B
:10095000AF02C801DF91CF911F910F91FF90EF90EF
:10096000DF90CF900895CF93DF931F92CDB7DEB77E
:10097000698320912A022223F9F020914D0220322E
:1009800058F021E030E0FC013383228390E080E0E6
:100990000F90DF91CF91089580912B02E82FF0E026
:1009A000E45DFD4F998190838F5F80932B0280934C
:1009B0004D0281E090E0ECCF61E0CE0101960E9413
:1009C000AF02F7CF90E080E008958F929F92AF92B0
:1009D000BF92FF920F931F93CF93DF93FC01653B70
:1009E000710511F464EB70E0F0808BE08F1508F472
:1009F0004AC0828108E512E0081B110987FD1395A2
:100A0000000F111F000F111F8181C8E8D0E0C81B23
:100A1000D10987FDD395CC0FDD1FCC0FDD1F4E0113
:100A20000D2E000CAA08BB089801012E000C440BE7
:100A3000550B281939094A095B09DB010E94671126
:100A400024EB30E040E050E00E943D11820E931E06
:100A5000A41EB51E8C169D062CF0E801801691068A
:100A60000CF4E4012297CC0FDD1F2FB7F8948F2DE3
:100A700090E0FC01EE0FFF1FE80FF91FE05DFE4F55
:100A8000D283C1832FBFDF91CF911F910F91FF9030
:100A9000BF90AF909F908F9008951F93CF93DF9357
:100AA000EC01162F88818C3008F04DC0862F0E94F3
:100AB0008C008881282F30E0F901EE0FFF1FE20F34
:100AC000F31FE05DFE4F1F736081607C612B6083CC
:100AD00019821A822CE0622F0E94A011829FB0011D
:100AE000112430E020E0AB01420F531FFA01EE0F5A
:100AF000FF1FE40FF51FE05DFE4F908196FD16C0CD
:100B00002F5F3F4F2C30310571F781110FC01092CC
:100B1000800082E080938100109285001092840012
:100B2000B19A80916F00826080936F00E8818E2F70
:100B300090E0FC01EE0FFF1FE80FF91FE05DFE4F94
:100B40008081806480838881DF91CF911F91089597
:100B50000F931F93CF93DF938C01CCE3D0E0BE01C2
:100B60008EEE92E00E94E5046AE070E080E090E0A2
:100B70000E9464012196C13AD10589F76CE271E0C7
:100B800080E090E00E946401C4EBD0E0BE018BEEF7
:100B900092E00E94E5046AE070E080E090E00E944C
:100BA00064012197C935D10589F76CE271E080E0D5
:100BB00090E00E946401C0EAD0E0BE018EEE92E0B7
:100BC0000E94E5046AE070E080E090E00E94640129
:100BD0002197CB33D10589F7012B89F4CAE5D0E001
:100BE000BE018BEE92E00E94E5046AE070E080E0D6
:100BF00090E00E9464012196C53BD10589F76CE223
:100C000071E080E090E0DF91CF911F910F910C9403
:100C100064011F93CF93DF9300D000D01F92CDB714
:100C2000DEB7880F880F8A5F89831A827B834C83A3
:100C30005D838091030390910403FC01248135813D
:100C400025303105E0F0208111E010932A02209335
:100C50004C0210922B0210924D0221E045E050E030
:100C6000BE016F5F7F4F0E94050481270F900F9098
:100C70000F900F900F90DF91CF911F91089581E019
:100C8000F5CFAB016F3F9FE0790730F050E040E0D7
:100C900060E070E10C940906672B11F440E050E12C
:100CA00070E060E0F7CFCF93DF9300D0CDB7DEB731
:100CB00089836A838091030390910403FC0124815A
:100CC00035812230310590F0208131E030932A02C5
:100CD00020934C0210922B0210924D0221E042E030
:100CE00050E0BE016F5F7F4F0E9405040F900F9090
:100CF000DF91CF9108952F923F924F925F926F9222
:100D00007F928F929F92AF92BF92CF92DF92EF929B
:100D1000FF920F931F93CF93DF931F92CDB7DEB750
:100D20006B017C0120E030E040E85FE30E941F128D
:100D300087FDECC020E030EC4AE555E4C701B60180
:100D40000E947E1318160CF4E8C0609105037091A0
:100D5000060380910703909108030E94CC124B0177
:100D60005C0120E030E040E855E4C701B6010E9494
:100D700083139B01AC01C501B4010E94241220E041
:100D800030E040E05FE30E94B31120E030E040E853
:100D90005FE30E94B2116B017C0120E030E040E48F
:100DA00050E40E941F1287FDC0C020E030E04FE7F2
:100DB00053E4C701B6010E947E1318160CF4BBC0A1
:100DC000C701B6010E949D12962E1982E09003037E
:100DD000F0900403D70114968D919C911597892B5F
:100DE00009F41AC18C9191E090932A0280934C02ED
:100DF00010922B0210924D0220E041E050E0BE0123
:100E00006F5F7F4FC7010E940504882309F404C166
:100E10008824839485EC382EF701C480D58001E0C6
:100E2000C114D10409F400E0A02EB12CD7012C90FC
:100E30000E943F012B013C0180912402811182C05C
:100E4000102F8092240200932302BFEFB09322025E
:100E5000109221028FEF800F809320028092FF0179
:100E60008091FF01220C282A2092FF018091FE012F
:100E7000813009F0A8C01092FE010E943F012B01B1
:100E80003C018091FF018093BB00809126029091EC
:100E90002702A0912802B0912902892B8A2B8B2B43
:100EA000A1F00E943F01209126023091270240913B
:100EB0002802509129026419750986099709261795
:100EC00037074807590708F45EC08091BC0083FDCE
:100ED000D8CF3092BC000E943F012B013C01809191
:100EE0002402813009F473C080912102801710F42C
:100EF00010912102E0E0F2E0AEEDB1E080E0811778
:100F000009F446C091919D938F5FF9CFC12CD12CEC
:100F100040E8E42E4FE3F42E18CFC12C30ECD32E52
:100F20003AE5E32E35E4F32E10CFC12CD12C20E48A
:100F3000E22EFE2C45CFC12CD12C9FE7E92E93E465
:100F4000F92E3ECF8091260290912702A09128028F
:100F5000B0912902892B8A2B8B2B09F46DCF0E942B
:100F60003F012091260230912702409128025091A2
:100F70002902641975098609970926173707480752
:100F8000590708F059CF809125020E94F40210E021
:100F90001092DD011093DC011A151B04E9F590E0B5
:100FA00080E08A159B05A8F5D70111968D919C913B
:100FB000DC01ED91FC910284F385E02D0995898394
:100FC00081E090E0EECFE5EEE093BC0084CF80912D
:100FD000260290912702A0912802B0912902892B24
:100FE0008A2B8B2B09F47BCF0E943F012091260294
:100FF0003091270240912802509129026419750905
:1010000086099709261737074807590708F067CF59
:10101000BACFCD2809F400CF1981612F6F766061B6
:1010200080E00E945306692D8EEF0E945306612FC7
:1010300080E00E94530665E070E080E090E00E944E
:101040006401612F606A80E00E9453060F90DF9177
:10105000CF911F910F91FF90EF90DF90CF90BF90B5
:10106000AF909F908F907F906F905F904F903F9048
:101070002F9008951F93CF93DF93EB01880F11E01A
:10108000180F1C161D06A4F440E050E170E060E06B
:101090000E940906BE0124E0660F771F2A95E1F73A
:1010A000615F7F4F812FDF91CF911F910C9441069B
:1010B000209781F450E040E060E070E10E94090672
:1010C00050E040E060E070E1812FDF91CF911F910F
:1010D0000C940906219694E0CC0FDD1F9A95E1F758
:1010E00061E070E06C1B7D0B0E94410640E050E126
:1010F00070E060E0E9CFCF92DF92EF92FF92CF9362
:10110000DF938FE00E942D01EC0180E10E942D0110
:101110008C1B9D0BBC01990F880B990B0E94CE1262
:101120006093D8017093D9018093DA019093DB0129
:101130006091D8017091D9018091DA019091DB0121
:101140002091D4013091D5014091D6015091D70121
:101150000E9483136093D0017093D1018093D201D8
:101160009093D3016091CC017091CD018091CE011B
:101170009091CF012091C8013091C9014091CA01DD
:101180005091CB010E9483136093C4017093C501F9
:101190008093C6019093C7016091D8017091D901E5
:1011A0008091DA019091DB012091C0013091C10161
:1011B0004091C2015091C301C090BC01D090BD01CB
:1011C000E090BE01F090BF010E94B211A70196010C
:1011D0000E9483136093B8017093B9018093BA01A0
:1011E0009093BB016091D0017091D1018091D201A7
:1011F0009091D3012091C4013091C5014091C60165
:101200005091C701C090B801D090B901E090BA01E7
:10121000F090BB010E94B311A70196010E94B31187
:101220006093B4017093B5018093B6019093B701B8
:101230006091B4017091B5018091B6019091B701B0
:10124000C090B401D090B501E090B601F090B70124
:101250000E949612C0E5D0E0C61BD70BD7FF02C094
:10126000D0E0C0E0CD38D10514F0CCE8D0E0C70123
:10127000B6010E949612605B7F4F77FF02C070E05C
:1012800060E06D38710514F06CE870E0719561955F
:10129000710990E080E00E943A08BE0181E090E090
:1012A0000E943A08CE01DF91CF91FF90EF90DF903E
:1012B000CF900895CF93DF93EC0170E060E090E071
:1012C00080E00E943A0870E060E081E090E00E94D7
:1012D0003A08209741F0BE01DD0F880B990BDF9192
:1012E000CF910C946401DF91CF910895CF93DF9358
:1012F000EC011092B3011092B2010E947B08809120
:10130000B2019091B3010597C4F3662777276C1B50
:101310007D0B90E080E00E943A08BE0181E090E001
:10132000DF91CF910C943A08CF93DF938FE00E9426
:101330002D01843F91406CF46BE470E090E080E01C
:101340000E943A086BE470E081E090E00E943A0865
:10135000EDCF8FE00E942D01EC0180E10E942D0174
:10136000C81BD90BC53BD1056CF06BE470E090E075
:1013700080E00E943A086BE470E081E090E00E9417
:101380003A08E7CF8BE490E0DF91CF910C94760997
:101390000F931F93CF93DF93EB0100271127081BB7
:1013A000190BB80190E080E00E943A08B80181E092
:1013B00090E00E943A08209771F0BE01DD0F880B83
:1013C000990B0E94640190E080E0DF91CF911F9122
:1013D0000F910C945A09DF91CF911F910F910895AD
:1013E00085ED8093BC008091260290912702A09108
:1013F0002802B09129020796A11DB11D23E0B695E0
:10140000A795979587952A95D1F72091BC0024FD43
:1014100003C01092240208954091260250912702A1
:101420006091280270912902452B462B472B69F3C6
:101430000097A105B10541F025E32A95F1F70000D9
:101440000197A109B109E1CF809125020C94F40222
:101450001F920F920FB60F9211242F933F938F93E9
:101460009F93AF93BF938091A6019091A701A09104
:10147000A801B091A9013091A50123E0230F2D37D8
:1014800058F50196A11DB11D2093A5018093A601D9
:101490009093A701A093A801B093A9018091AA01FC
:1014A0009091AB01A091AC01B091AD010196A11D4D
:1014B000B11D8093AA019093AB01A093AC01B093AE
:1014C000AD01BF91AF919F918F913F912F910F905F
:1014D0000FBE0F901F90189526E8230F0296A11DAE
:1014E000B11DD2CF1F920F920FB60F9211242F93DE
:1014F0003F934F935F936F937F938F939F93AF939C
:10150000BF93EF93FF93E0910201F09103010995DE
:10151000FF91EF91BF91AF919F918F917F916F91CB
:101520005F914F913F912F910F900FBE0F901F90A1
:1015300018951F920F920FB60F9211242F933F937D
:101540004F935F936F937F938F939F93AF93BF93CB
:10155000EF93FF93E0910001F09101010995FF9154
:10156000EF91BF91AF919F918F917F916F915F911B
:101570004F913F912F910F900FBE0F901F90189594
:101580001F920F920FB60F9211242F933F934F93F8
:101590005F936F937F938F939F93AF93BF93EF93DB
:1015A000FF938EE492E00E942002FF91EF91BF91A1
:1015B000AF919F918F917F916F915F914F913F91EB
:1015C0002F910F900FBE0F901F9018951F920F92A2
:1015D0000FB60F9211242F938F939F93EF93FF9346
:1015E000E0915E02F0915F028081E0916402F091EF
:1015F000650282FD1BC09081809167028F5F8F73AF
:1016000020916802821741F0E0916702F0E0E25B0E
:10161000FD4F958F80936702FF91EF919F918F917E
:101620002F910F900FBE0F901F9018958081F4CFCF
:101630001F920F920FB60F9211242F933F934F9347
:101640005F936F937F938F939F93AF93BF93EF932A
:10165000FF9380919E0190919F018093B2008091B1
:10166000A1019091A201A091A301B091A4010196C2
:10167000A11DB11D8093A1019093A201A093A3018C
:10168000B093A4018091A1019091A201A091A30126
:10169000B091A40140919A0150919B0160919C01ED
:1016A00070919D0184179507A607B70710F18091E7
:1016B000A00181111EC081E08093A0018091A10151
:1016C0009091A201A091A301B091A401841B950B5C
:1016D000A60BB70B8093A1019093A201A093A30145
:1016E000B093A401E0919801F091990109951092AD
:1016F000A001FF91EF91BF91AF919F918F917F9149
:101700006F915F914F913F912F910F900FBE0F906E
:101710001F9018951F920F920FB60F9211242F93BE
:101720003F934F935F936F937F938F939F93AF9369
:10173000BF93EF93FF938091B900887F803609F4BF
:101740004AC0F0F5883209F4A7C018F5803109F4D1
:101750009BC0B8F4882309F4F9C0883009F494C018
:10176000FF91EF91BF91AF919F918F917F916F9179
:101770005F914F913F912F910F900FBE0F901F904F
:101780001895883109F488C0803251F7809322027D
:1017900014C0803409F49DC040F48033B9F3883319
:1017A000F9F68093220285ECB0C0803509F485C03B
:1017B000883509F496C0883499F60E94F009D0CF94
:1017C000883909F48CC038F5883729F050F4883608
:1017D00011F0803729F683E080932402109297015C
:1017E00057C0883809F47BC0803919F0803809F077
:1017F000B7CF80919701803208F071C0E0919701D6
:1018000081E08E0F809397018091BB00F0E0E95852
:10181000FE4F80833DC0803B39F0E0F4803A09F40C
:1018200079C0883A09F09CCF84E08093240210921A
:10183000760110927501E091B001F091B101099526
:101840008091750181110FC081E080937501109224
:10185000550109C0803C09F4A6CF883C09F4A3CF08
:10186000883B09F07DCFE091760181E08E0F809377
:101870007601F0E0EB5AFE4F80818093BB0090919F
:1018800076018091750129C08091FF018093BB0092
:1018900085EC8093BC0064CF90912102809120025E
:1018A000981758F5E091210281E08E0F8093210274
:1018B000F0E0E050FE4F8081E9CFE091210281E02D
:1018C0008E0F809321028091BB00F0E0E050FE4F2C
:1018D000808390912102809120029817C8F285E8B8
:1018E000D8CFE091210281E08E0F80932102809178
:1018F000BB00F0E0E050FE4F808380912302811115
:101900005CCF81E08093FE0184EA8093BC0010925A
:10191000240226CF85EC8093BC0010922402809193
:101920009701803230F4E0919701F0E0E958FE4FE2
:1019300010826091970170E0E091AE01F091AF01EB
:1019400087E791E00995109297010ACF1092220241
:1019500034CF1F920F920FB60F9211242F933F9303
:101960004F935F936F937F938F939F93AF93BF93A7
:10197000CF93DF93EF93FF9380912E01C0912F01BE
:10198000D0E087FF24C010928500109284008091DF
:101990002E018F5F80932E0180912E01082E000C66
:1019A000990B8C179D0724F480912E018C30C4F183
:1019B0008091840090918500049680349C4908F4BD
:1019C0007AC08091840090918500049676C08091C1
:1019D0002E01082E000C990B8C179D07C4F6E09180
:1019E0002E018E2FEE0F990BFC01EE0FFF1FE80F5B
:1019F000F91FE05DFE4F808186FFC9CFE0912E0187
:101A00008E2FEE0F990BFC01EE0FFF1FE80FF91F51
:101A1000E05DFE4F808160E08F730E94FF00B7CFD2
:101A20002091840030918500E0912E018E2FEE0FE1
:101A3000990BFC01EE0FFF1FE80FF91FE05DFE4F51
:101A400081819281820F931F9093890080938800F7
:101A5000E0912E018E2FEE0F990BFC01EE0FFF1F70
:101A6000E80FF91FE05DFE4F808186FF11C0E09115
:101A70002E018E2FEE0F990BFC01EE0FFF1FE80FCA
:101A8000F91FE05DFE4F808161E08F730E94FF00CF
:101A9000FF91EF91DF91CF91BF91AF919F918F9186
:101AA0007F916F915F914F913F912F910F900FBE5A
:101AB0000F901F90189580E49CE990938900809383
:101AC00088008FEF80932E01E3CFFC0190912F01CE
:101AD0009C3098F481E0890F80932F019083892FA7
:101AE00090E0FC01EE0FFF1FE80FF91FE05DFE4FD5
:101AF00088EB9BE09283818308958FEF8083089524
:101B0000CF93DF93EEE4F2E01382128288EE93E04B
:101B1000A0E0B0E084839583A683B7832EE031E014
:101B20003183208325EC30E03587248724EC30E0B6
:101B30003787268720EC30E0318B208B21EC30E09A
:101B4000338B228B22EC30E0358B248B26EC30E07B
:101B5000378B268B118E128E138E148EC4EFD2E02B
:101B60001B821A828C839D83AE83BF8380E291E0C7
:101B70009983888381EF92E00E94650D8EEE92E05A
:101B80000E94650D8BEE92E00E94650DE0E0F3E0AF
:101B900080E48083D283C18314821382DF91CF914A
:101BA0000895789484B5826084BD84B5816084BDD5
:101BB00085B5826085BD85B5816085BD80916E00EB
:101BC000816080936E00109281008091810082601C
:101BD0008093810080918100816080938100809159
:101BE00080008160809380008091B1008460809348
:101BF000B1008091B00081608093B00080917A0044
:101C0000846080937A0080917A00826080937A0069
:101C100080917A00816080937A0080917A00806858
:101C200080937A001092C100E0915E02F0915F0211
:101C300082E08083E0915A02F0915B021082E09191
:101C40005C02F0915D028FEC808310926602E0915D
:101C50006202F091630286E08083E0916002F0917D
:101C60006102808180618083E0916002F091610275
:101C7000808188608083E0916002F09161028081C0
:101C800080688083E0916002F091610280818F7DA5
:101C900080836AE070E081EF92E00E944D0566E08B
:101CA00070E08EEE92E00E944D0567E070E08BEEF2
:101CB00092E00E944D056CE370E08EEE92E00E948F
:101CC000E50464EB70E08BEE92E00E94E50464E6CC
:101CD00070E081EF92E00E94E50485E00E948C00B4
:101CE00084E00E948C0060E085E00E94FF0060E0DC
:101CF00084E00E94FF001092B3011092B20188EBC1
:101D00009EE1A5E0BEE38093D4019093D501A0931A
:101D1000D601B093D7011092C8011092C901109258
:101D2000CA011092CB011092BC011092BD01109219
:101D3000BE011092BF011092C0011092C101109219
:101D4000C2011092C3011092D8011092D9011092D1
:101D5000DA011092DB011092CC011092CD011092A9
:101D6000CE011092CF01C2E08C2F0E948C00CF5F79
:101D7000CA30D1F78091030390910403009711F0CA
:101D80000E948C1486E090E00E94F013EC01809198
:101D90000103909102032091000328839A83898391
:101DA0001B8280E290E09D838C83D0930403C093D8
:101DB00003031092DD011092DC0110922B021092AD
:101DC0004D020E94D6028BEA90E09093B10180937D
:101DD000B0018CEA90E09093AF018093AE0181E076
:101DE0008B83CE010E9423048823E1F060E880E029
:101DF0000E9453066AE070E080E090E00E94640177
:101E000080E498E7ADE7B1E0809305039093060383
:101E1000A0930703B093080360E070E08AE794E4BE
:101E20000E947B0680EC9CEFABE9B1E08093050358
:101E300090930603A0930703B093080360E070E05B
:101E400088EC93E40E947B068CE08093B80084E6E3
:101E500090E0A0E0B0E080939A0190939B01A09362
:101E60009C01B0939D0187E991E090939901809343
:101E70009801809170008E7F809370008091B000F7
:101E80008C7F8093B0008091B100877F8093B100F8
:101E90008091B6008F7D8093B600809170008D7F19
:101EA000809370008091B10084608093B100809134
:101EB000B1008C7F8093B10086E090E090939F0109
:101EC00080939E011092A1011092A2011092A30191
:101ED0001092A4011092A00180919E0190919F0107
:101EE0008093B2008091700081608093700000E068
:101EF00010E00E947B088CE00E94D600892BC9F379
:101F000090E080E00E945A098BE490E00E947609FC
:101F10000E947B088CE00E94D600892BC9F390E0D8
:101F200080E00E945A0990E080E00E94A8056AEBD8
:101F30007FEF82E090E00E943A0864EF71E080E079
:101F400090E00E94640162E370E082E090E00E9411
:101F50003A0860E273E080E090E00E94640170E083
:101F600060E082E090E00E943A088BE490E00E94FA
:101F700076090E947B088CE00E94D600892BC9F369
:101F800090E080E00E945A0990E080E00E94A8055D
:101F90008BE490E00E9476090E947B088CE00E940E
:101FA000D600892BC9F390E080E00E945A0981E0B5
:101FB00090E00E94A8058BE490E00E9476090E94C0
:101FC0007B088CE00E94D600892BC9F30E949409FB
:101FD0000E947B088CE00E94D600892BC9F38CE21A
:101FE00091E00E945A0966E470E082E090E00E946D
:101FF0003A0868EB7BE080E090E00E94640170E0CA
:1020000060E082E090E00E943A0880E10E942D01A9
:10201000843F91403CF470E060E08BE490E00E94EB
:10202000C809F3CF8FE00E942D01EC0180E10E94EE
:102030002D01C81BD90BC53BD1053CF070E060E019
:102040008BE490E00E94C809EDCF6CE271E086E479
:1020500090E00E94C80980E10E942D01843F9140D8
:102060002CF470E060E08BE490E0F3CF8FE00E940E
:102070002D01EC0180E10E942D01C81BD90BC53B4D
:10208000D1053CF070E060E08BE490E00E94C8096C
:10209000EDCF8BE490E00E9476090E947B088CE0F3
:1020A0000E94D600892BC9F30E9494091092B301B3
:1020B0001092B2010E947B088091B2019091B3010D
:1020C0000497C4F30E947B088CE00E94D600892B01
:1020D000C9F30E9494091092B3011092B2010E94B8
:1020E0007B088091B2019091B3014A97C4F30E949A
:1020F0007B088CE00E94D600892BC9F30E949409CA
:102100000E947B088BE00E94D600892BC9F384EFE4
:1021100091E00E945A0970E060E081EF92E00E9435
:10212000E5048BE490E00E9476090E947B088BE036
:102130000E94D600892BC9F384EF91E00E945A09CE
:1021400064E670E081EF92E00E94E5048BE490E0A9
:102150000E9476090E947B088BE00E94D600892BA2
:10216000C9F388EE93E00E945A098BE490E00E9444
:1021700076090E947B088CE00E94D600892BC9F367
:102180000E9494091092B3011092B2010E947B0840
:102190008091B2019091B3010F97C4F368E775E0A5
:1021A00086E490E00E94C80988EB9BE00E945A09EF
:1021B0001092B3011092B2010E947B088091B2018B
:1021C0009091B301C397C4F30E947B088CE00E94F6
:1021D000D600892BC9F30E9494091092B301109282
:1021E000B2010E947B088091B2019091B30148979F
:1021F000C4F390E080E00E945A09C3E0D0E061E0BF
:1022000085E00E94FF0061E084E00E94FF0064EF2F
:1022100071E080E090E00E94640160E085E00E944F
:10222000FF0060E084E00E94FF0064EF71E080E066
:1022300090E00E946401219711F71092B30110926F
:10224000B2010E947B088091B2019091B3018A97FC
:10225000C4F380E19EE00E945A0980E197E20E9467
:102260005A090115110509F444CE0E940C02882375
:1022700009F43FCE0E9400003CCE052E97FB1EF4D1
:1022800000940E94541157FD07D00E946F1107FC63
:1022900003D04EF40C9454115095409530952195EF
:1022A0003F4F4F4F5F4F0895909580957095619582
:1022B0007F4F8F4F9F4F08950E949111A59F900DC2
:1022C000B49F900DA49F800D911D11240895B7FF18
:1022D0000C945C110E945C11821B930B0895A1E287
:1022E0001A2EAA1BBB1BFD010DC0AA1FBB1FEE1F90
:1022F000FF1FA217B307E407F50720F0A21BB30BDB
:10230000E40BF50B661F771F881F991F1A9469F756
:1023100060957095809590959B01AC01BD01CF01B2
:102320000895A29FB001B39FC001A39F700D811DAE
:102330001124911DB29F700D811D1124911D0895CE
:10234000991B79E004C0991F961708F0961B881F07
:102350007A95C9F780950895EE0FFF1F0590F491C7
:10236000E02D09945058BB27AA270E94CA110C944B
:1023700044130E94361338F00E943D1320F039F4C4
:102380009F3F19F426F40C9433130EF4E095E7FB09
:102390000C942D13E92F0E94551358F3BA176207B6
:1023A00073078407950720F079F4A6F50C9477134A
:1023B0000EF4E0950B2EBA2FA02D0B01B901900160
:1023C0000C01CA01A0011124FF27591B99F0593FA4
:1023D00050F4503E68F11A16F040A22F232F342FEC
:1023E0004427585FF3CF469537952795A795F0403A
:1023F0005395C9F77EF41F16BA0B620B730B840B4F
:10240000BAF09150A1F0FF0FBB1F661F771F881F06
:10241000C2F70EC0BA0F621F731F841F48F487955E
:1024200077956795B795F7959E3F08F0B0CF939550
:10243000880F08F09927EE0F9795879508950E94C9
:10244000091308F481E008950E9438120C94441393
:102450000E943D1358F00E94361340F029F45F3F6C
:1024600029F00C942D1351110C9478130C94331300
:102470000E94551368F39923B1F3552391F3951BEB
:10248000550BBB27AA2762177307840738F09F5F95
:102490005F4F220F331F441FAA1FA9F335D00E2E02
:1024A0003AF0E0E832D091505040E695001CCAF76F
:1024B0002BD0FE2F29D0660F771F881FBB1F261732
:1024C00037074807AB07B0E809F0BB0B802DBF0109
:1024D000FF2793585F4F3AF09E3F510578F00C94D8
:1024E0002D130C9478135F3FE4F3983ED4F3869554
:1024F00077956795B795F7959F5FC9F7880F911DF9
:102500009695879597F90895E1E0660F771F881FE4
:10251000BB1F621773078407BA0720F0621B730B97
:10252000840BBA0BEE1F88F7E09508950E949D1268
:102530006894B1110C94781308950E945D1388F08B
:102540009F5798F0B92F9927B751B0F0E1F0660F77
:10255000771F881F991F1AF0BA95C9F714C0B130B8
:1025600091F00E947713B1E008950C947713672FD0
:10257000782F8827B85F39F0B93FCCF386957795E7
:102580006795B395D9F73EF49095809570956195D0
:102590007F4F8F4F9F4F0895E89409C097FB3EF4FB
:1025A00090958095709561957F4F8F4F9F4F9923A0
:1025B000A9F0F92F96E9BB279395F695879577951E
:1025C0006795B795F111F8CFFAF4BB0F11F460FFDE
:1025D0001BC06F5F7F4F8F4F9F4F16C0882311F036
:1025E00096E911C0772321F09EE8872F762F05C04A
:1025F000662371F096E8862F70E060E02AF09A95E5
:10260000660F771F881FDAF7880F9695879597F9D9
:102610000895990F0008550FAA0BE0E8FEEF161673
:102620001706E807F907C0F012161306E407F507C6
:1026300098F0621B730B840B950B39F40A2661F03A
:10264000232B242B252B21F408950A2609F4A140DD
:10265000A6958FEF811D811D089597F99F6780E8EA
:1026600070E060E008959FEF80EC089500240A94E4
:102670001616170618060906089500240A9412165D
:102680001306140605060895092E0394000C11F490
:10269000882352F0BB0F40F4BF2B11F460FF04C03D
:1026A0006F5F7F4F8F4F9F4F089557FD9058440F96
:1026B000551F59F05F3F71F04795880F97FB991FA1
:1026C00061F09F3F79F0879508951216130614065E
:1026D000551FF2CF4695F1DF08C0161617061806EB
:1026E000991FF1CF86957105610508940895E894C6
:1026F000BB2766277727CB0197F908950E94091316
:1027000008F48FEF08950E9496130C9444130E94CE
:10271000361338F00E943D1320F0952311F00C94ED
:102720002D130C94331311240C9478130E94551319
:1027300070F3959FC1F3950F50E0551F629FF00114
:10274000729FBB27F00DB11D639FAA27F00DB11D2D
:10275000AA1F649F6627B00DA11D661F829F2227B6
:10276000B00DA11D621F739FB00DA11D621F839F3D
:10277000A00D611D221F749F3327A00D611D231F13
:10278000849F600D211D822F762F6A2F11249F5761
:1027900050409AF0F1F088234AF0EE0FFF1FBB1F64
:1027A000661F771F881F91505040A9F79E3F510523
:1027B00080F00C942D130C9478135F3FE4F3983E53
:1027C000D4F3869577956795B795F795E7959F5FCD
:1027D000C1F7FE2B880F911D9695879597F908955F
:1027E0000F931F93CF93DF938230910510F482E013
:1027F00090E0E0910B03F0910C0330E020E0B0E0BA
:10280000A0E0309799F42115310509F44AC0281B3E
:10281000390B24303105D8F58A819B81611571050A
:1028200089F1FB0193838283FE0111C040815181B4
:102830000281138148175907E0F04817590799F4A6
:10284000109761F012960C93129713961C93329680
:10285000CF01DF91CF911F910F91089500930B034A
:1028600010930C03F4CF2115310551F04217530793
:1028700038F0A901DB019A01BD01DF01F801C1CFE8
:10288000EF01F9CF90930C0380930B03CDCFFE01A2
:10289000E20FF31F819391932250310939832883EA
:1028A000D7CF2091090330910A03232B41F42091C3
:1028B00006013091070130930A0320930903209108
:1028C0000401309105012115310541F42DB73EB7C2
:1028D0004091080150910901241B350BE091090337
:1028E000F0910A03E217F307A0F42E1B3F0B281701
:1028F000390778F0AC014E5F5F4F2417350748F079
:102900004E0F5F1F50930A034093090381939193E5
:102910009FCFF0E0E0E09CCFCF93DF930097E9F00A
:10292000FC01329713821282A0910B03B0910C0329
:10293000ED0130E020E01097A1F420813181820F79
:10294000931F2091090330910A032817390709F0D2
:1029500061C0F0930A03E0930903DF91CF910895DA
:10296000EA01CE17DF07E8F54A815B819E01411538
:102970005105B1F7E901FB83EA8349915991C40FED
:10298000D51FEC17FD0761F4808191810296840FB9
:10299000951FE90199838883828193819B838A8330
:1029A000F0E0E0E012968D919C9113970097B9F5B5
:1029B0002D913C911197CD010296820F931F20918A
:1029C000090330910A032817390739F6309751F572
:1029D00010920C0310920B03B0930A03A093090307
:1029E000BCCFD383C28340815181840F951FC81708
:1029F000D90761F44E5F5F4F88819981480F591F55
:102A0000518340838A819B81938382832115310581
:102A100009F0B0CFF0930C03E0930B039ECFFD01C0
:0E2A2000DC01C0CF13821282D7CFF894FFCF13
:102A2E00A101A10100000D03800000000000420280
:102A3E00A201CF018F020002DE01F20100000000B0
:0E2A4E00B3048604E2045C047F046C045D049F
:00000001FF
