:100000000C9462000C9451080C942A080C948A00F9
:100010000C948A000C948A000C948A000C948A0038
:100020000C948A000C948A000C948A000C948A0028
:100030000C948A000C948A000C948A000C948A0018
:100040000C94E0070C948A000C949E080C94780899
:100050000C948A000C948A000C948A000C948A00F8
:100060000C94D0080C948A000000000024002700A3
:100070002A0000000000250028002B0000000000DE
:1000800023002600290004040404040404040202DA
:100090000202020203030303030301020408102007
:1000A0004080010204081020010204081020000012
:1000B0000008000201000003040700000000000027
:1000C0000000EF0911241FBECFEFD8E0DEBFCDBF87
:1000D00011E0A0E0B1E0E0E3F0E202C005900D9293
:1000E000AE32B107D9F722E0AEE2B1E001C01D9215
:1000F000AF3CB207E1F710E0C2E6D0E004C02197C0
:10010000FE010E94AD0CC136D107C9F70E94340A26
:100110000C9416100C94000008950895833081F01B
:1001200028F4813099F08230A9F008958730A9F041
:100130008830C9F08430B1F4809180008F7D03C095
:10014000809180008F7780938000089584B58F77A9
:1001500084BD089584B58F7DFBCF8091B0008F77EB
:100160008093B00008958091B0008F7DF9CFCF9338
:10017000DF93282F30E0F901E255FF4F8491F90118
:10018000E656FF4FD491F901EA57FF4FC491CC23B3
:10019000A1F081110E948E00EC2FF0E0EE0FFF1F06
:1001A000E458FF4FA591B491EC91ED2381E090E0EC
:1001B00009F480E0DF91CF91089580E090E0FACFDC
:1001C0001F93CF93DF93282F30E0F901E255FF4FC3
:1001D0008491F901E656FF4FD491F901EA57FF4F98
:1001E000C491CC23A9F0162F81110E948E00EC2F10
:1001F000F0E0EE0FFF1FEE58FF4FA591B4918FB7BF
:10020000F894EC91111108C0D095DE23DC938FBFD8
:10021000DF91CF911F910895DE2BF8CF8E5080642F
:1002200080937C0080917A00806480937A00809132
:100230007A0086FDFCCF8091780090917900089536
:100240003FB7F89480919F019091A001A091A101E6
:10025000B091A20126B5A89B05C02F3F19F00196C9
:10026000A11DB11D3FBFBA2FA92F982F8827BC0110
:10027000CD01620F711D811D911D42E0660F771F38
:10028000881F991F4A95D1F708958F929F92AF9238
:10029000BF92CF92DF92EF92FF926B017C010E949E
:1002A00020014B015C01C114D104E104F104B9F057
:1002B0000E942001681979098A099B09683E7340E8
:1002C0008105910580F321E0C21AD108E108F10807
:1002D00088EE880E83E0981EA11CB11CE4CFFF902D
:1002E000EF90DF90CF90BF90AF909F908F90089548
:1002F0000895AF92BF92CF92DF92EF92FF920F9349
:100300001F93CF93DF936C017B018B01040F151FAB
:10031000EB015E01AE18BF08C017D10759F0699113
:10032000D601ED91FC910190F081E02DC601099577
:10033000892B79F7C501DF91CF911F910F91FF9024
:10034000EF90DF90CF90BF90AF900895FC01538D58
:10035000448D252F30E0842F90E0821B930B54179F
:1003600010F0CF96089501970895FC01918D828D2C
:10037000981761F0A28DAE0FBF2FB11D5D968C91C5
:10038000928D9F5F9F73928F90E008958FEF9FEF04
:100390000895FC01918D828D981731F0828DE80FC0
:1003A000F11D858D90E008958FEF9FEF0895FC017A
:1003B000918D228D892F90E0805C9F4F821B910947
:1003C0008F739927089589E192E00E94D70121E077
:1003D000892B09F420E0822F089580E090E0892B9A
:1003E00029F00E94E30181110C9400000895FC01A2
:1003F000A48DA80FB92FB11DA35ABF4F2C91848D86
:1004000090E001968F739927848FA689B7892C93E2
:10041000A089B1898C91837080648C93938D848D35
:10042000981306C00288F389E02D80818F7D808338
:100430000895EF92FF920F931F93CF93DF93EC01F8
:1004400081E0888F9B8D8C8D98131AC0E889F9897B
:10045000808185FF15C09FB7F894EE89FF8960837E
:10046000E889F98980818370806480839FBF81E0FF
:1004700090E0DF91CF911F910F91FF90EF90089541
:10048000F62E0B8D10E00F5F1F4F0F731127E02E1C
:100490008C8D8E110CC00FB607FCFACFE889F98954
:1004A000808185FFF5CFCE010E94F701F1CFEB8D62
:1004B000EC0FFD2FF11DE35AFF4FF0829FB7F89428
:1004C0000B8FEA89FB8980818062CFCFCF93DF9346
:1004D000EC01888D8823B9F0AA89BB89E889F9895C
:1004E0008C9185FD03C0808186FD0DC00FB607FC91
:1004F000F7CF8C9185FFF2CF808185FFEDCFCE01C4
:100500000E94F701E9CFDF91CF91089520914F012B
:10051000260F3327331F21323105ECF42091EF01F0
:10052000FC0190E080E0243069F082E00895A09121
:100530004F012191AC01415D5E4FA40FB52FB11D5C
:100540002C930196861798F380914F01680F609362
:100550004F0180E0089581E008951092EF0181E05D
:100560008093EE011092C90161E082E10E94E000F7
:1005700061E083E10E94E000E9EBF0E080818E7FA2
:10058000808380818D7F808388E48093B80085E4B8
:100590008093BC000895CF93DF9391E090932E0158
:1005A0008823B9F0C091B800D091BA008091BC0006
:1005B0008A7B8093BC0060E082E10E94E00060E002
:1005C00083E10E94E0000E94AD02D093BA00C09384
:1005D000B800DF91CF9108958F929F92AF92BF9212
:1005E000CF92DF92EF92FF920F931F93CF93DF93FF
:1005F000D0911802D13208F0D7C0182FC09117023D
:100600000E9420016B017C018091EF0181116BC080
:1006100082E08093EF011093EE018FEF8093ED0164
:100620001092EC01D093EB01A7EFB1E0EBECF1E01D
:1006300080E0D81391C01092CA018091CA01CC0FFA
:10064000C82BC093CA018091C901813009F088C0CC
:100650001092C9010E9420016B017C018091CA01A6
:100660008093BB008091F1019091F201A091F30180
:10067000B091F401892B8A2B8B2BA1F00E942001D1
:100680000091F1011091F2012091F3013091F401F8
:100690006C197D098E099F09061717072807390766
:1006A00008F442C08091BC0083FDD8CF85EC8093D4
:1006B000BC000E9420016B017C018091EF0182301F
:1006C00009F450C08091ED018F3F09F46FC0809113
:1006D000ED01803209F46CC08091ED01803309F4A2
:1006E00069C084E026C08091F1019091F201A0914F
:1006F000F301B091F401892B8A2B8B2B09F484CF61
:100700000E9420018090F1019090F201A090F301ED
:10071000B090F4016C197D098E099F098616970621
:10072000A806B90608F070CF8091F0010E94CB02B4
:1007300085E01092F601109218021092F501DF91F7
:10074000CF911F910F91FF90EF90DF90CF90BF90CE
:10075000AF909F908F9008959D9191938F5F69CFF7
:1007600085EEA5CF8091F1019091F201A091F30166
:10077000B091F401892B8A2B8B2B09F49ECF0E9418
:1007800020010091F1011091F2012091F3013091CB
:10079000F4016C197D098E099F09061717072807B0
:1007A000390708F08ACFC0CF81E0C3CF80E0C1CF46
:1007B00082E0BFCF83E0BDCF1F93CF93DF93EA01E9
:1007C000122FDC0111968D919C91DC01ED91FC9131
:1007D0000280F381E02D0995C817D90729F4812FEC
:1007E0000E94EC0291E0811190E0892FDF91CF917E
:1007F0001F910895CF93DF93EC018B818823A1F0A3
:10080000888191E09093F501809317021092F60190
:100810001092180281E00E94EC0291E0811190E0B8
:10082000892FDF91CF9108951092A8011092A7010E
:100830001092F601109218020E94AD028CE890E02E
:100840009093A6018093A5018DE890E09093A40178
:100850008093A30181E08B83CE010E94FA03982F3D
:100860008111CECFDDCF0895E091A8018091A7013D
:10087000E81730F4F0E0E755FE4F808190E00895EE
:100880008FEF9FEF08959091A8018091A7012FEF1E
:100890003FEF981748F4E92FF0E0E755FE4F20812D
:1008A00030E09F5F9093A801C90108958091A7014E
:1008B0009091A801891B990B0895CF92DF92EF9236
:1008C000FF920F931F93CF93DF937C01CB018A019B
:1008D0002091F501222389F0EB016B01C40ED51E96
:1008E000CC15DD0569F06991D701ED91FC9101907E
:1008F000F081E02DC7010995F3CF642F0E94860295
:10090000C801DF91CF911F910F91FF90EF90DF9081
:10091000CF900895CF93DF931F92CDB7DEB7698351
:100920002091F5012223F9F020911802203258F08D
:1009300021E030E0FC013383228390E080E00F90DF
:10094000DF91CF9108958091F601E82FF0E0E95012
:10095000FE4F998190838F5F8093F60180931802F8
:1009600081E090E0ECCF61E0CE0101960E9486022A
:10097000F7CF90E080E00895CF93DF938BE00E9463
:10098000B700EC01019769F08CE00E94B700019775
:1009900089F48BE00E94B700892B61F4C2E0D0E0BB
:1009A00005C08CE00E94B700892B71F7CE01DF9162
:1009B000CF9108958CE00E94B700019739F48BE045
:1009C0000E94B700C3E0D0E0019781F3D0E0C0E01F
:1009D000EDCF1F93CF93DF9300D000D01F92CDB700
:1009E000DEB7880F880F8A5F89831A827B834C83E6
:1009F0005D838091C5029091C602FC0124813581FE
:100A000025303105E0F0208111E01093F5012093AD
:100A100017021092F6011092180221E045E050E012
:100A2000BE016F5F7F4F0E94DC0381270F900F9004
:100A30000F900F900F90DF91CF911F91089581E05B
:100A4000F5CFAB016F3F9FE0790730F050E040E019
:100A500060E070E10C94E904672B11F440E050E190
:100A600070E060E0F7CFCF93DF9300D0CDB7DEB773
:100A700089836A838091C5029091C602FC0124811A
:100A800035812230310590F0208131E03093F5013D
:100A9000209317021092F6011092180221E042E012
:100AA00050E0BE016F5F7F4F0E94DC030F900F90FC
:100AB000DF91CF9108952F923F924F925F926F9264
:100AC0007F928F929F92AF92BF92CF92DF92EF92DE
:100AD000FF920F931F93CF93DF931F92CDB7DEB793
:100AE0006B017C0120E030E040E85FE30E94200DD4
:100AF00087FDECC020E030EC4AE555E4C701B601C3
:100B00000E947F0E18160CF4E8C06091C702709125
:100B1000C8028091C9029091CA020E94CD0D4B017A
:100B20005C0120E030E040E855E4C701B6010E94D6
:100B3000840E9B01AC01C501B4010E94250D20E08B
:100B400030E040E05FE30E94B40C20E030E040E899
:100B50005FE30E94B30C6B017C0120E030E040E4D5
:100B600050E40E94200D87FDC0C020E030E04FE738
:100B700053E4C701B6010E947F0E18160CF4BBC0E7
:100B8000C701B6010E949E0D962E1982E090C50203
:100B9000F090C602D70114968D919C911597892BE0
:100BA00009F41AC18C9191E09093F501809317029A
:100BB0001092F6011092180220E041E050E0BE01D0
:100BC0006F5F7F4FC7010E94DC03882309F404C1D3
:100BD0008824839485EC382EF701C480D58001E009
:100BE000C114D10409F400E0A02EB12CD7012C903F
:100BF0000E9420012B013C018091EF01811182C0F4
:100C0000102F8092EF010093EE01BFEFB093ED0142
:100C10001092EC018FEF800F8093EB018092CA015C
:100C20008091CA01220C282A2092CA018091C90110
:100C3000813009F0A8C01092C9010E9420012B0147
:100C40003C018091CA018093BB008091F101909199
:100C5000F201A091F301B091F401892B8A2B8B2B27
:100C6000A1F00E9420012091F1013091F201409108
:100C7000F3015091F4016419750986099709261743
:100C800037074807590708F45EC08091BC0083FD10
:100C9000D8CF3092BC000E9420012B013C018091F2
:100CA000EF01813009F473C08091EC01801710F4DA
:100CB0001091EC01EBECF1E0A9EAB1E080E08117E2
:100CC00009F446C091919D938F5FF9CFC12CD12C2F
:100CD00040E8E42E4FE3F42E18CFC12C30ECD32E95
:100CE0003AE5E32E35E4F32E10CFC12CD12C20E4CD
:100CF000E22EFE2C45CFC12CD12C9FE7E92E93E4A8
:100D0000F92E3ECF8091F1019091F201A091F30173
:100D1000B091F401892B8A2B8B2B09F46DCF0E94A3
:100D200020012091F1013091F2014091F3015091A5
:100D3000F4016419750986099709261737074807CA
:100D4000590708F059CF8091F0010E94CB0210E0C2
:100D50001092A8011093A7011A151B04E9F590E061
:100D600080E08A159B05A8F5D70111968D919C917D
:100D7000DC01ED91FC910284F385E02D09958983D6
:100D800081E090E0EECFE5EEE093BC0084CF80916F
:100D9000F1019091F201A091F301B091F401892B3E
:100DA0008A2B8B2B09F47BCF0E9420012091F1012B
:100DB0003091F2014091F3015091F40164197509E9
:100DC00086099709261737074807590708F067CF9C
:100DD000BACFCD2809F400CF1981612F6F766061F9
:100DE00080E00E943305692D8EEF0E943305612F4C
:100DF00080E00E94330565E070E080E090E00E94B2
:100E00004501612F606A80E00E9433050F90DF91F9
:100E1000CF911F910F91FF90EF90DF90CF90BF90F7
:100E2000AF909F908F907F906F905F904F903F908A
:100E30002F9008951F93CF93DF93EB01880F11E05C
:100E4000180F1C161D06A4F440E050E170E060E0AD
:100E50000E94E904BE0124E0660F771F2A95E1F79E
:100E6000615F7F4F812FDF91CF911F910C942105FE
:100E7000209781F450E040E060E070E10E94E904D6
:100E800050E040E060E070E1812FDF91CF911F9151
:100E90000C94E904219694E0CC0FDD1F9A95E1F7BC
:100EA00061E070E06C1B7D0B0E94210540E050E189
:100EB00070E060E0E9CF70E060E090E080E00E94E8
:100EC0001A0770E060E081E090E00E941A0770E08D
:100ED00060E082E090E00E941A0770E060E083E04A
:100EE00090E00C941A07CF93DF93EC01BC0190E0E3
:100EF00080E00E941A07BE0181E090E00E941A077C
:100F0000BE0182E090E00E941A07BE0183E090E0FB
:100F1000DF91CF910C941A07CF93DF93CC27DD2775
:100F2000C81BD90BBE0190E080E00E941A07BE01E9
:100F300081E090E00E941A07BE0182E090E00E94EA
:100F40001A07BE0183E090E0DF91CF910C941A075D
:100F500085ED8093BC008091F1019091F201A09108
:100F6000F301B091F4010796A11DB11D23E0B695E0
:100F7000A795979587952A95D1F72091BC0024FDD8
:100F800003C01092EF0108954091F1015091F201D8
:100F90006091F3017091F401452B462B472B69F3C7
:100FA0000097A105B10541F025E32A95F1F700006E
:100FB0000197A109B109E1CF8091F0010C94CB0216
:100FC0001F920F920FB60F9211242F933F938F937E
:100FD0009F93AF93BF9380919B0190919C01A091AF
:100FE0009D01B0919E0130919A0123E0230F2D378E
:100FF00058F50196A11DB11D20939A0180939B0184
:1010000090939C01A0939D01B0939E0180919F01BC
:101010009091A001A091A101B091A2010196A11D02
:10102000B11D80939F019093A001A093A101B09363
:10103000A201BF91AF919F918F913F912F910F90FE
:101040000FBE0F901F90189526E8230F0296A11D42
:10105000B11DD2CF1F920F920FB60F9211242F9372
:101060003F934F935F936F937F938F939F93AF9330
:10107000BF93EF93FF93E0910201F0910301099573
:10108000FF91EF91BF91AF919F918F917F916F9160
:101090005F914F913F912F910F900FBE0F901F9036
:1010A00018951F920F920FB60F9211242F933F9312
:1010B0004F935F936F937F938F939F93AF93BF9360
:1010C000EF93FF93E0910001F09101010995FF91E9
:1010D000EF91BF91AF919F918F917F916F915F91B0
:1010E0004F913F912F910F900FBE0F901F90189529
:1010F0001F920F920FB60F9211242F933F934F938D
:101100005F936F937F938F939F93AF93BF93EF936F
:10111000FF9389E192E00E94F701FF91EF91BF9167
:10112000AF919F918F917F916F915F914F913F917F
:101130002F910F900FBE0F901F9018951F920F9236
:101140000FB60F9211242F938F939F93EF93FF93DA
:10115000E0912902F0912A028081E0912F02F09122
:10116000300282FD1BC09081809132028F5F8F73AD
:1011700020913302821741F0E0913202F0E0E75E05
:10118000FD4F958F80933202FF91EF919F918F9148
:101190002F910F900FBE0F901F9018958081F4CF64
:1011A0001F920F920FB60F9211242F933F934F93DC
:1011B0005F936F937F938F939F93AF93BF93EF93BF
:1011C000FF938091B900887F803609F44AC0F0F51A
:1011D000883209F4A7C018F5803109F49BC0B8F42F
:1011E000882309F4F9C0883009F494C0FF91EF9185
:1011F000BF91AF919F918F917F916F915F914F912F
:101200003F912F910F900FBE0F901F90189588312E
:1012100009F488C0803251F78093ED0114C0803406
:1012200009F49DC040F48033B9F38833F9F6809314
:10123000ED0185ECB0C0803509F485C0883509F42E
:1012400096C0883499F60E94A807D0CF883909F44F
:101250008CC038F5883729F050F4883611F0803783
:1012600029F683E08093EF011092710157C088380E
:1012700009F47BC0803919F0803809F0B7CF80912C
:101280007101803208F071C0E091710181E08E0F30
:10129000809371018091BB00F0E0EF5AFE4F808394
:1012A0003DC0803B39F0E0F4803A09F479C0883AD7
:1012B00009F09CCF84E08093EF01109250011092CE
:1012C0004F01E091A501F091A601099580914F0190
:1012D00081110FC081E080934F0110922F0109C04E
:1012E000803C09F4A6CF883C09F4A3CF883B09F0E1
:1012F0007DCFE091500181E08E0F80935001F0E0AE
:10130000E15DFE4F80818093BB0090915001809100
:101310004F0129C08091CA018093BB0085EC809366
:10132000BC0064CF9091EC018091EB01981758F5C7
:10133000E091EC0181E08E0F8093EC01F0E0E55349
:10134000FE4F8081E9CFE091EC0181E08E0F809328
:10135000EC018091BB00F0E0E553FE4F808390915B
:10136000EC018091EB019817C8F285E8D8CFE091A5
:10137000EC0181E08E0F8093EC018091BB00F0E0E6
:10138000E553FE4F80838091EE0181115CCF81E0B7
:101390008093C90184EA8093BC001092EF0126CFAC
:1013A00085EC8093BC001092EF0180917101803236
:1013B00030F4E0917101F0E0EF5AFE4F108260913D
:1013C000710170E0E091A301F091A40181E591E049
:1013D0000995109271010ACF1092ED0134CFE9E125
:1013E000F2E01382128288EE93E0A0E0B0E0848302
:1013F0009583A683B7832EE031E03183208325ECEB
:1014000030E03587248724EC30E03787268720ECCE
:1014100030E0318B208B21EC30E0338B228B22ECBF
:1014200030E0358B248B26EC30E0378B268B118E09
:10143000128E138E148EE6EBF2E0138212828483F6
:101440009583A683B78380E291E091838083A2ECA9
:10145000B2E080E48C931296FC93EE93119714966D
:101460001C921E9213970895789484B5826084BD6F
:1014700084B5816084BD85B5826085BD85B5816098
:1014800085BD80916E00816080936E001092810016
:1014900080918100826080938100809181008160D1
:1014A0008093810080918000816080938000809192
:1014B000B10084608093B1008091B000816080931E
:1014C000B00080917A00846080937A0080917A00E5
:1014D000826080937A0080917A00816080937A00A4
:1014E00080917A00806880937A001092C100E09128
:1014F0002902F0912A0282E08083E0912502F09196
:1015000026021082E0912702F09128028FEC80835E
:1015100010923102E0912D02F0912E0286E080833C
:10152000E0912B02F0912C02808180618083E09118
:101530002B02F0912C02808188608083E0912B0245
:10154000F0912C02808180688083E0912B02F091E1
:101550002C0280818F7D808380E090E0A0E8BEE354
:101560008093920190939301A0939401B09395017D
:1015700010928601109287011092880110928901C1
:101580008AE097EDA3E2BCE380937A0190937B011C
:10159000A0937C01B0937D0110927E0110927F0197
:1015A0001092800110928101109296011092970181
:1015B000109298011092990110928A0110928B0159
:1015C00010928C0110928D0122E030E0F901E65674
:1015D000FF4F4491F901EA57FF4F8491882399F016
:1015E00090E0880F991FFC01E859FF4FA591B49135
:1015F000FC01EE58FF4F859194918FB7F894EC91D0
:10160000E42BEC938FBF2F5F3F4F2A303105F1F66B
:101610008091C5029091C602009711F00E948D0F33
:1016200086E090E00E94F10EEC018091C30290915F
:10163000C4022091C20228839A8389831B8280E29C
:1016400090E09D838C83D093C602C093C502109214
:10165000A8011092A7011092F601109218020E94A0
:10166000AD028CE890E09093A6018093A5018DE8EF
:1016700090E09093A4018093A30181E08B83CE013D
:101680000E94FA038823E1F060E880E00E943305BD
:101690006AE070E080E090E00E94450180E498E715
:1016A000ADE7B1E08093C7029093C802A093C9024E
:1016B000B093CA0260E070E08AE794E40E945B05A0
:1016C00080EC9CEFABE9B1E08093C7029093C80235
:1016D000A093C902B093CA0260E070E088EC93E482
:1016E0000E945B058CE08093B80084E6C82ED12C64
:1016F00090E0E92E90E0F92E0E94BC04892B09F0BD
:10170000E9C080E10E940E01EC018FE00E940E0111
:10171000BE01681B790B072E000C880B990B0E94E9
:10172000CF0D6093960170939701809398019093E9
:101730009901609196017091970180919801909123
:10174000990120919201309193014091940150911F
:1017500095010E94840E60938E0170938F01809397
:1017600090019093910160918A0170918B01809119
:101770008C0190918D0120918601309187014091DB
:101780008801509189010E94840E609382017093B8
:1017900083018093840190938501609196017091FB
:1017A0009701809198019091990120917E0130914B
:1017B0007F01409180015091810180907A01909049
:1017C0007B01A0907C01B0907D010E94B30CA5012B
:1017D00094010E94840E6093760170937701809348
:1017E00078019093790160918E0170918F018091C1
:1017F000900190919101209182013091830140915B
:101800008401509185018090760190907701A0909D
:101810007801B09079010E94B40CA50194010E9456
:10182000B40C609372017093730180937401909370
:1018300075016091720170917301809174019091B2
:1018400075018090720190907301A0907401B09026
:1018500075010E94970D8601061B170B17FF02C02A
:1018600010E000E0C501B4010E94970DEB01CC59D6
:10187000DF4FD7FF02C0D0E0C0E0C739D10514F078
:10188000C6E9D0E0BE0190E080E00E941A07073967
:10189000110514F006E910E0119501951109B80140
:1018A00081E090E00E941A07B80182E090E00E9477
:1018B0001A07BE0183E090E00E941A07E114F104C8
:1018C00009F41ACF0E94E301882309F415CF0E947E
:1018D000000012CF0E94BC040197C9F486E990E091
:1018E0000E948C078FE00E940E018C3B9240B4F363
:1018F0008FE00E940E01EC0180E10E940E01C81BE6
:10190000D90BC436D105D4F60E945B07F1CF0E94F3
:10191000BC040297D1F486E990E00E94730780E14D
:101920000E940E018C3B9240B4F38FE00E940E01A6
:10193000EC0180E10E940E01C81BD90BC436D10511
:101940000CF0BCCF0E945B07F0CF0E94BC04039751
:1019500009F0B4CF0E945B07B1CFEE0FFF1F0590D7
:10196000F491E02D09945058BB27AA270E94CB0C74
:101970000C94450E0E94370E38F00E943E0E20F067
:1019800039F49F3F19F426F40C94340E0EF4E095CC
:10199000E7FB0C942E0EE92F0E94560E58F3BA174F
:1019A000620773078407950720F079F4A6F50C9475
:1019B000780E0EF4E0950B2EBA2FA02D0B01B90175
:1019C00090010C01CA01A0011124FF27591B99F0B5
:1019D000593F50F4503E68F11A16F040A22F232FC1
:1019E000342F4427585FF3CF469537952795A79511
:1019F000F0405395C9F77EF41F16BA0B620B730BB8
:101A0000840BBAF09150A1F0FF0FBB1F661F771F28
:101A1000881FC2F70EC0BA0F621F731F841F48F4DD
:101A2000879577956795B795F7959E3F08F0B0CF66
:101A30009395880F08F09927EE0F9795879508954D
:101A40000E940A0E08F481E008950E94390D0C945A
:101A5000450E0E943E0E58F00E94370E40F029F4C9
:101A60005F3F29F00C942E0E51110C94790E0C94BA
:101A7000340E0E94560E68F39923B1F3552391F367
:101A8000951B550BBB27AA2762177307840738F0ED
:101A90009F5F5F4F220F331F441FAA1FA9F335D04A
:101AA0000E2E3AF0E0E832D091505040E695001CFE
:101AB000CAF72BD0FE2F29D0660F771F881FBB1FB8
:101AC000261737074807AB07B0E809F0BB0B802D96
:101AD000BF01FF2793585F4F3AF09E3F510578F0C2
:101AE0000C942E0E0C94790E5F3FE4F3983ED4F3E1
:101AF000869577956795B795F7959F5FC9F7880F96
:101B0000911D9695879597F90895E1E0660F771FE7
:101B1000881FBB1F621773078407BA0720F0621B78
:101B2000730B840BBA0BEE1F88F7E09508950E94A3
:101B30009E0D6894B1110C94790E08950E945E0E6A
:101B400088F09F5798F0B92F9927B751B0F0E1F07E
:101B5000660F771F881F991F1AF0BA95C9F714C02E
:101B6000B13091F00E94780EB1E008950C94780E97
:101B7000672F782F8827B85F39F0B93FCCF3869567
:101B800077956795B395D9F73EF4909580957095C4
:101B900061957F4F8F4F9F4F0895E89409C097FB41
:101BA0003EF490958095709561957F4F8F4F9F4F34
:101BB0009923A9F0F92F96E9BB279395F695879578
:101BC00077956795B795F111F8CFFAF4BB0F11F43B
:101BD00060FF1BC06F5F7F4F8F4F9F4F16C08823E2
:101BE00011F096E911C0772321F09EE8872F762F18
:101BF00005C0662371F096E8862F70E060E02AF059
:101C00009A95660F771F881FDAF7880F9695879544
:101C100097F90895990F0008550FAA0BE0E8FEEF19
:101C200016161706E807F907C0F012161306E407A0
:101C3000F50798F0621B730B840B950B39F40A2699
:101C400061F0232B242B252B21F408950A2609F477
:101C5000A140A6958FEF811D811D089597F99F677B
:101C600080E870E060E008959FEF80EC0895002424
:101C70000A941616170618060906089500240A94F1
:101C800012161306140605060895092E0394000C77
:101C900011F4882352F0BB0F40F4BF2B11F460FF06
:101CA00004C06F5F7F4F8F4F9F4F089557FD90582F
:101CB000440F551F59F05F3F71F04795880F97FB10
:101CC000991F61F09F3F79F08795089512161306CA
:101CD0001406551FF2CF4695F1DF08C016161706F9
:101CE0001806991FF1CF869571056105089408952E
:101CF000E894BB2766277727CB0197F908950E94C0
:101D00000A0E08F48FEF08950E94970E0C94450E6A
:101D10000E94370E38F00E943E0E20F0952311F0FD
:101D20000C942E0E0C94340E11240C94790E0E94F7
:101D3000560E70F3959FC1F3950F50E0551F629FAB
:101D4000F001729FBB27F00DB11D639FAA27F00D14
:101D5000B11DAA1F649F6627B00DA11D661F829F3B
:101D60002227B00DA11D621F739FB00DA11D621F20
:101D7000839FA00D611D221F749F3327A00D611D3D
:101D8000231F849F600D211D822F762F6A2F11241F
:101D90009F5750409AF0F1F088234AF0EE0FFF1F52
:101DA000BB1F661F771F881F91505040A9F79E3FA9
:101DB000510580F00C942E0E0C94790E5F3FE4F3E5
:101DC000983ED4F3869577956795B795F795E795FF
:101DD0009F5FC1F7FE2B880F911D9695879597F908
:101DE00008950F931F93CF93DF938230910510F4E2
:101DF00082E090E0E091CD02F091CE0230E020E070
:101E0000B0E0A0E0309799F42115310509F44AC0FB
:101E1000281B390B24303105D8F58A819B81611547
:101E2000710589F1FB0193838283FE0111C040811A
:101E300051810281138148175907E0F0481759076B
:101E400099F4109761F012960C93129713961C93C5
:101E50003296CF01DF91CF911F910F91089500939A
:101E6000CD021093CE02F4CF2115310551F0421767
:101E7000530738F0A901DB019A01BD01DF01F80128
:101E8000C1CFEF01F9CF9093CE028093CD02CDCF99
:101E9000FE01E20FF31F81939193225031093983A0
:101EA0002883D7CF2091CB023091CC02232B41F451
:101EB00020910601309107013093CC022093CB0290
:101EC00020910401309105012115310541F42DB710
:101ED0003EB74091080150910901241B350BE09158
:101EE000CB02F091CC02E217F307A0F42E1B3F0BBC
:101EF0002817390778F0AC014E5F5F4F241735077C
:101F000048F04E0F5F1F5093CC024093CB02819359
:101F100091939FCFF0E0E0E09CCFCF93DF930097C9
:101F2000E9F0FC01329713821282A091CD02B091A8
:101F3000CE02ED0130E020E01097A1F42081318144
:101F4000820F931F2091CB023091CC0228173907C2
:101F500009F061C0F093CC02E093CB02DF91CF9106
:101F60000895EA01CE17DF07E8F54A815B819E01FB
:101F700041155105B1F7E901FB83EA834991599174
:101F8000C40FD51FEC17FD0761F480819181029683
:101F9000840F951FE90199838883828193819B83B4
:101FA0008A83F0E0E0E012968D919C911397009760
:101FB000B9F52D913C911197CD010296820F931F97
:101FC0002091CB023091CC022817390739F630978F
:101FD00051F51092CE021092CD02B093CC02A09394
:101FE000CB02BCCFD383C28340815181840F951F24
:101FF000C817D90761F44E5F5F4F88819981480FF8
:10200000591F518340838A819B8193838283211549
:10201000310509F0B0CFF093CE02E093CD029ECF10
:10202000FD01DC01C0CF13821282D7CFF894FFCF1D
:10203000780178010000CF02800000000000190242
:102040007901A6016602D701B501C90100000000AF
:0E2050008A045D04B9043304560443043404C6
:00000001FF
